{
	"data": {
		"bytecode": {
			"linkReferences": {},
			"object": "608060405234801561001057600080fd5b50611609806100206000396000f3fe6080604052600436106100dd5760003560e01c8063a7ea44251161007f578063d85d3d2711610059578063d85d3d2714610245578063e7177f3914610258578063f13d59c0146102d3578063f7a543d7146102f357600080fd5b8063a7ea4425146101f2578063bed34bba14610205578063d3ac76f81461022557600080fd5b806392eb4874116100bb57806392eb4874146101575780639c6e820c14610177578063a36b5572146101a5578063a6fc0a6f146101c557600080fd5b806345bb6e6b146100e257806382a19fd9146100f757806391d4522c14610134575b600080fd5b6100f56100f036600461119f565b610313565b005b34801561010357600080fd5b5061011761011236600461116c565b610400565b60405190516001600160a01b031681526020015b60405180910390f35b610147610142366004611013565b610448565b604051901515815260200161012b565b34801561016357600080fd5b506100f561017236600461116c565b610541565b34801561018357600080fd5b5061019761019236600461116c565b610647565b60405190815260200161012b565b3480156101b157600080fd5b506100f56101c036600461119f565b610658565b3480156101d157600080fd5b506101e56101e036600461116c565b610694565b60405161012b9190611469565b6100f561020036600461124c565b610782565b34801561021157600080fd5b506101476102203660046111eb565b6108eb565b34801561023157600080fd5b506100f56102403660046112fc565b610944565b6100f561025336600461116c565b610a0e565b34801561026457600080fd5b5061027861027336600461116c565b610bae565b60405161012b919081516001600160a01b03908116825260208084015182169083015260408084015182169083015260608084015182169083015260808084015182169083015260a092830151169181019190915260c00190565b3480156102df57600080fd5b506100f56102ee3660046110e5565b610c5a565b3480156102ff57600080fd5b506100f561030e36600461116c565b610cc4565b34670de0b6b3a76400001461037c5760405162461bcd60e51b815260206004820152602560248201527f497420636f73747320312045544820746f207075726368617365206120556e69604482015264766572736560d81b606482015260840160405180910390fd5b600061038783610d1f565b60408051808201825260058152647468656d6560d81b60208083019182526000858152908190529290922090519293506103c392909190610e3e565b5060408051602080820183526001600160a01b0394851682526000938452600390529120905181546001600160a01b031916921691909117905550565b604080516020810190915260008152600061041a83610d1f565b600090815260036020908152604091829020825191820190925290546001600160a01b031681529392505050565b835160009081805b8281101561051f57600088828151811061047a57634e487b7160e01b600052603260045260246000fd5b6020026020010151905060008883815181106104a657634e487b7160e01b600052603260045260246000fd5b6020908102919091018101516001600160a01b038a166000908152600483526040808220868352909352919091205490915081146104ec57600095505050505050610539565b600082815260076020526040902060030154610508908561150d565b9350505080806105179061158c565b915050610450565b5083811461053257600092505050610539565b6001925050505b949350505050565b600061054c82610d1f565b604080518082018252600681526573797374656d60d01b602080830191825260008581529081905292909220905192935061058992909190610e3e565b506040805160c08101825260008082526020808301828152838501838152606085018481526080860185815260a0870186815298865260029485905296909420945185546001600160a01b03199081166001600160a01b0392831617875592516001870180548516918316919091179055905192850180548316938216939093179092559151600384018054841691831691909117905592516004830180548316918516919091179055925160059091018054909316911617905550565b600061065282610d1f565b92915050565b600061066383610d1f565b600090815260036020526040902080546001600160a01b0319166001600160a01b0393909316929092179091555050565b60408051808201909152606081526000602082015260006106b483610d1f565b9050600160008281526020019081526020016000206040518060400160405290816000820180546106e490611551565b80601f016020809104026020016040519081016040528092919081815260200182805461071090611551565b801561075d5780601f106107325761010080835404028352916020019161075d565b820191906000526020600020905b81548152906001019060200180831161074057829003601f168201915b5050509183525050600191909101546001600160a01b03166020909101529392505050565b600061078d86610d1f565b600081815260066020908152604080832080546001600160a01b03191633179055805160c08101825289815280830189905280820188905260608181018890526080820181905260a0820181905285855260078452919093208351805195965091948594939192610802928492910190610e3e565b50602082810151805161081b9260018501920190610e3e565b5060408201518051610837916002840191602090910190610e3e565b50606082015160038201556080820151805161085d916004840191602090910190610ec2565b5060a08201518051610879916005840191602090910190610ec2565b505050600083815260066020908152604080832054600790925291829020600381015492517fc6791be7b88bb77bcade458d5d3a0246fb3fd0e48acad90139bfe7bf76d7bb4b936108d9936001600160a01b031692916004830190611398565b60405180910390a15050505050505050565b6000816040516020016108fe919061137c565b6040516020818303038152906040528051906020012083604051602001610925919061137c565b6040516020818303038152906040528051906020012014905092915050565b600061094f83610d1f565b6000818152600660205260409020549091506001600160a01b0316331461097557600080fd5b600081815260076020818152604080842060048101805460018181018355828852858820909101889055600583018054918201815587528487200188905586865260068452948290205493909252600382015490517fc6791be7b88bb77bcade458d5d3a0246fb3fd0e48acad90139bfe7bf76d7bb4b94610a01946001600160a01b0316939291611398565b60405180910390a1505050565b6000610a1982610d1f565b6000818152600760209081526040918290206004018054835181840281018401909452808452939450610ae0939091830182828015610a7757602002820191906000526020600020905b815481526020019060010190808311610a63575b50505060008581526007602090815260409182902060050180548351818402810184019094528084529294509250830182828015610ad457602002820191906000526020600020905b815481526020019060010190808311610ac0575b50505050503334610448565b610ae957600080fd5b3360009081526004602090815260408083208484529091528120805460019290610b1490849061150d565b909155505060008181526007602090815260408083206003015460069092528220600101805491929091610b4990849061150d565b9091555050600081815260066020908152604091829020805460019091015483516001600160a01b039092168252918101919091527f223c28139b72831ac0a992b596a41a941624c483c2ace9633b8556f63ceefad491015b60405180910390a15050565b6040805160c081018252600080825260208201819052918101829052606081018290526080810182905260a0810182905290610be983610d1f565b600090815260026020818152604092839020835160c08101855281546001600160a01b03908116825260018301548116938201939093529281015482169383019390935260038301548116606083015260048301548116608083015260059092015490911660a08201529392505050565b6000610c6584610d1f565b9050610c9183604051806040016040528060088152602001673637b1b0ba34b7b760c11b8152506108eb565b15610cbe57600081815260026020526040902080546001600160a01b0319166001600160a01b0384161790555b50505050565b6000610ccf82610d1f565b336000818152600460209081526040808320858452825291829020548251938452908301529192507f6d6fe17ef15c28c3ac5eba0274d404c20646c642209c2c79d221978b3f8ad9949101610ba2565b60006106528260005b600081835111610d3a57506000610652565b6000610d468484610da2565b9050610d6684610d56838661150d565b610d6190600161150d565b610d28565b610d71858584610e1a565b6040805160208101939093528201526060016040516020818303038152906040528051906020012091505092915050565b6000805b8351610db2828561150d565b14158015610dfc575083610dc6828561150d565b81518110610de457634e487b7160e01b600052603260045260246000fd5b6020910101516001600160f81b031916601760f91b14155b15610e135780610e0b8161158c565b915050610da6565b9392505050565b8251600090610e29838561150d565b1115610e3457600080fd5b5091016020012090565b828054610e4a90611551565b90600052602060002090601f016020900481019282610e6c5760008555610eb2565b82601f10610e8557805160ff1916838001178555610eb2565b82800160010185558215610eb2579182015b82811115610eb2578251825591602001919060010190610e97565b50610ebe929150610efc565b5090565b828054828255906000526020600020908101928215610eb25791602002820182811115610eb2578251825591602001919060010190610e97565b5b80821115610ebe5760008155600101610efd565b600067ffffffffffffffff831115610f2b57610f2b6115bd565b610f3e601f8401601f19166020016114b8565b9050828152838383011115610f5257600080fd5b828260208301376000602084830101529392505050565b80356001600160a01b0381168114610f8057600080fd5b919050565b600082601f830112610f95578081fd5b81356020610faa610fa5836114e9565b6114b8565b80838252828201915082860187848660051b8901011115610fc9578586fd5b855b85811015610fe757813584529284019290840190600101610fcb565b5090979650505050505050565b600082601f830112611004578081fd5b610e1383833560208501610f11565b60008060008060808587031215611028578384fd5b843567ffffffffffffffff8082111561103f578586fd5b818701915087601f830112611052578586fd5b81356020611062610fa5836114e9565b8083825282820191508286018c848660051b8901011115611081578a8bfd5b8a96505b848710156110a3578035835260019690960195918301918301611085565b50985050880135925050808211156110b9578485fd5b506110c687828801610f85565b9350506110d560408601610f69565b9396929550929360600135925050565b6000806000606084860312156110f9578283fd5b833567ffffffffffffffff80821115611110578485fd5b818601915086601f830112611123578485fd5b61113287833560208501610f11565b94506020860135915080821115611147578384fd5b5061115486828701610ff4565b92505061116360408501610f69565b90509250925092565b60006020828403121561117d578081fd5b813567ffffffffffffffff811115611193578182fd5b61053984828501610ff4565b600080604083850312156111b1578182fd5b823567ffffffffffffffff8111156111c7578283fd5b6111d385828601610ff4565b9250506111e260208401610f69565b90509250929050565b600080604083850312156111fd578182fd5b823567ffffffffffffffff80821115611214578384fd5b61122086838701610ff4565b93506020850135915080821115611235578283fd5b5061124285828601610ff4565b9150509250929050565b600080600080600060a08688031215611263578081fd5b853567ffffffffffffffff8082111561127a578283fd5b61128689838a01610ff4565b9650602088013591508082111561129b578283fd5b6112a789838a01610ff4565b955060408801359150808211156112bc578283fd5b6112c889838a01610ff4565b945060608801359150808211156112dd578283fd5b506112ea88828901610ff4565b95989497509295608001359392505050565b6000806040838503121561130e578182fd5b823567ffffffffffffffff811115611324578283fd5b61133085828601610ff4565b95602094909401359450505050565b6000815480845260208085019450838352808320835b8381101561137157815487529582019560019182019101611355565b509495945050505050565b6000825161138e818460208701611525565b9190910192915050565b60018060a01b03851681526000602060808184015281865483600182811c9150808316806113c757607f831692505b8583108114156113e557634e487b7160e01b87526022600452602487fd5b6080880183905260a0880181801561140457600181146114155761143f565b60ff1986168252878201965061143f565b60008d815260209020895b8681101561143957815484820152908501908901611420565b83019750505b505050505050856040850152838103606085015261145d818661133f565b98975050505050505050565b6020815260008251604060208401528051806060850152611491816080860160208501611525565b602094909401516001600160a01b0316604084015250506080601f909201601f1916010190565b604051601f8201601f1916810167ffffffffffffffff811182821017156114e1576114e16115bd565b604052919050565b600067ffffffffffffffff821115611503576115036115bd565b5060051b60200190565b60008219821115611520576115206115a7565b500190565b60005b83811015611540578181015183820152602001611528565b83811115610cbe5750506000910152565b600181811c9082168061156557607f821691505b6020821081141561158657634e487b7160e01b600052602260045260246000fd5b50919050565b60006000198214156115a0576115a06115a7565b5060010190565b634e487b7160e01b600052601160045260246000fd5b634e487b7160e01b600052604160045260246000fdfea26469706673582212201cbd946800524f8a14ab097432ef9344dcb6ac0287f7492597973268ddd210cd64736f6c63430008040033",
			"opcodes": "PUSH1 0x80 PUSH1 0x40 MSTORE CALLVALUE DUP1 ISZERO PUSH2 0x10 JUMPI PUSH1 0x0 DUP1 REVERT JUMPDEST POP PUSH2 0x1609 DUP1 PUSH2 0x20 PUSH1 0x0 CODECOPY PUSH1 0x0 RETURN INVALID PUSH1 0x80 PUSH1 0x40 MSTORE PUSH1 0x4 CALLDATASIZE LT PUSH2 0xDD JUMPI PUSH1 0x0 CALLDATALOAD PUSH1 0xE0 SHR DUP1 PUSH4 0xA7EA4425 GT PUSH2 0x7F JUMPI DUP1 PUSH4 0xD85D3D27 GT PUSH2 0x59 JUMPI DUP1 PUSH4 0xD85D3D27 EQ PUSH2 0x245 JUMPI DUP1 PUSH4 0xE7177F39 EQ PUSH2 0x258 JUMPI DUP1 PUSH4 0xF13D59C0 EQ PUSH2 0x2D3 JUMPI DUP1 PUSH4 0xF7A543D7 EQ PUSH2 0x2F3 JUMPI PUSH1 0x0 DUP1 REVERT JUMPDEST DUP1 PUSH4 0xA7EA4425 EQ PUSH2 0x1F2 JUMPI DUP1 PUSH4 0xBED34BBA EQ PUSH2 0x205 JUMPI DUP1 PUSH4 0xD3AC76F8 EQ PUSH2 0x225 JUMPI PUSH1 0x0 DUP1 REVERT JUMPDEST DUP1 PUSH4 0x92EB4874 GT PUSH2 0xBB JUMPI DUP1 PUSH4 0x92EB4874 EQ PUSH2 0x157 JUMPI DUP1 PUSH4 0x9C6E820C EQ PUSH2 0x177 JUMPI DUP1 PUSH4 0xA36B5572 EQ PUSH2 0x1A5 JUMPI DUP1 PUSH4 0xA6FC0A6F EQ PUSH2 0x1C5 JUMPI PUSH1 0x0 DUP1 REVERT JUMPDEST DUP1 PUSH4 0x45BB6E6B EQ PUSH2 0xE2 JUMPI DUP1 PUSH4 0x82A19FD9 EQ PUSH2 0xF7 JUMPI DUP1 PUSH4 0x91D4522C EQ PUSH2 0x134 JUMPI JUMPDEST PUSH1 0x0 DUP1 REVERT JUMPDEST PUSH2 0xF5 PUSH2 0xF0 CALLDATASIZE PUSH1 0x4 PUSH2 0x119F JUMP JUMPDEST PUSH2 0x313 JUMP JUMPDEST STOP JUMPDEST CALLVALUE DUP1 ISZERO PUSH2 0x103 JUMPI PUSH1 0x0 DUP1 REVERT JUMPDEST POP PUSH2 0x117 PUSH2 0x112 CALLDATASIZE PUSH1 0x4 PUSH2 0x116C JUMP JUMPDEST PUSH2 0x400 JUMP JUMPDEST PUSH1 0x40 MLOAD SWAP1 MLOAD PUSH1 0x1 PUSH1 0x1 PUSH1 0xA0 SHL SUB AND DUP2 MSTORE PUSH1 0x20 ADD JUMPDEST PUSH1 0x40 MLOAD DUP1 SWAP2 SUB SWAP1 RETURN JUMPDEST PUSH2 0x147 PUSH2 0x142 CALLDATASIZE PUSH1 0x4 PUSH2 0x1013 JUMP JUMPDEST PUSH2 0x448 JUMP JUMPDEST PUSH1 0x40 MLOAD SWAP1 ISZERO ISZERO DUP2 MSTORE PUSH1 0x20 ADD PUSH2 0x12B JUMP JUMPDEST CALLVALUE DUP1 ISZERO PUSH2 0x163 JUMPI PUSH1 0x0 DUP1 REVERT JUMPDEST POP PUSH2 0xF5 PUSH2 0x172 CALLDATASIZE PUSH1 0x4 PUSH2 0x116C JUMP JUMPDEST PUSH2 0x541 JUMP JUMPDEST CALLVALUE DUP1 ISZERO PUSH2 0x183 JUMPI PUSH1 0x0 DUP1 REVERT JUMPDEST POP PUSH2 0x197 PUSH2 0x192 CALLDATASIZE PUSH1 0x4 PUSH2 0x116C JUMP JUMPDEST PUSH2 0x647 JUMP JUMPDEST PUSH1 0x40 MLOAD SWAP1 DUP2 MSTORE PUSH1 0x20 ADD PUSH2 0x12B JUMP JUMPDEST CALLVALUE DUP1 ISZERO PUSH2 0x1B1 JUMPI PUSH1 0x0 DUP1 REVERT JUMPDEST POP PUSH2 0xF5 PUSH2 0x1C0 CALLDATASIZE PUSH1 0x4 PUSH2 0x119F JUMP JUMPDEST PUSH2 0x658 JUMP JUMPDEST CALLVALUE DUP1 ISZERO PUSH2 0x1D1 JUMPI PUSH1 0x0 DUP1 REVERT JUMPDEST POP PUSH2 0x1E5 PUSH2 0x1E0 CALLDATASIZE PUSH1 0x4 PUSH2 0x116C JUMP JUMPDEST PUSH2 0x694 JUMP JUMPDEST PUSH1 0x40 MLOAD PUSH2 0x12B SWAP2 SWAP1 PUSH2 0x1469 JUMP JUMPDEST PUSH2 0xF5 PUSH2 0x200 CALLDATASIZE PUSH1 0x4 PUSH2 0x124C JUMP JUMPDEST PUSH2 0x782 JUMP JUMPDEST CALLVALUE DUP1 ISZERO PUSH2 0x211 JUMPI PUSH1 0x0 DUP1 REVERT JUMPDEST POP PUSH2 0x147 PUSH2 0x220 CALLDATASIZE PUSH1 0x4 PUSH2 0x11EB JUMP JUMPDEST PUSH2 0x8EB JUMP JUMPDEST CALLVALUE DUP1 ISZERO PUSH2 0x231 JUMPI PUSH1 0x0 DUP1 REVERT JUMPDEST POP PUSH2 0xF5 PUSH2 0x240 CALLDATASIZE PUSH1 0x4 PUSH2 0x12FC JUMP JUMPDEST PUSH2 0x944 JUMP JUMPDEST PUSH2 0xF5 PUSH2 0x253 CALLDATASIZE PUSH1 0x4 PUSH2 0x116C JUMP JUMPDEST PUSH2 0xA0E JUMP JUMPDEST CALLVALUE DUP1 ISZERO PUSH2 0x264 JUMPI PUSH1 0x0 DUP1 REVERT JUMPDEST POP PUSH2 0x278 PUSH2 0x273 CALLDATASIZE PUSH1 0x4 PUSH2 0x116C JUMP JUMPDEST PUSH2 0xBAE JUMP JUMPDEST PUSH1 0x40 MLOAD PUSH2 0x12B SWAP2 SWAP1 DUP2 MLOAD PUSH1 0x1 PUSH1 0x1 PUSH1 0xA0 SHL SUB SWAP1 DUP2 AND DUP3 MSTORE PUSH1 0x20 DUP1 DUP5 ADD MLOAD DUP3 AND SWAP1 DUP4 ADD MSTORE PUSH1 0x40 DUP1 DUP5 ADD MLOAD DUP3 AND SWAP1 DUP4 ADD MSTORE PUSH1 0x60 DUP1 DUP5 ADD MLOAD DUP3 AND SWAP1 DUP4 ADD MSTORE PUSH1 0x80 DUP1 DUP5 ADD MLOAD DUP3 AND SWAP1 DUP4 ADD MSTORE PUSH1 0xA0 SWAP3 DUP4 ADD MLOAD AND SWAP2 DUP2 ADD SWAP2 SWAP1 SWAP2 MSTORE PUSH1 0xC0 ADD SWAP1 JUMP JUMPDEST CALLVALUE DUP1 ISZERO PUSH2 0x2DF JUMPI PUSH1 0x0 DUP1 REVERT JUMPDEST POP PUSH2 0xF5 PUSH2 0x2EE CALLDATASIZE PUSH1 0x4 PUSH2 0x10E5 JUMP JUMPDEST PUSH2 0xC5A JUMP JUMPDEST CALLVALUE DUP1 ISZERO PUSH2 0x2FF JUMPI PUSH1 0x0 DUP1 REVERT JUMPDEST POP PUSH2 0xF5 PUSH2 0x30E CALLDATASIZE PUSH1 0x4 PUSH2 0x116C JUMP JUMPDEST PUSH2 0xCC4 JUMP JUMPDEST CALLVALUE PUSH8 0xDE0B6B3A7640000 EQ PUSH2 0x37C JUMPI PUSH1 0x40 MLOAD PUSH3 0x461BCD PUSH1 0xE5 SHL DUP2 MSTORE PUSH1 0x20 PUSH1 0x4 DUP3 ADD MSTORE PUSH1 0x25 PUSH1 0x24 DUP3 ADD MSTORE PUSH32 0x497420636F73747320312045544820746F207075726368617365206120556E69 PUSH1 0x44 DUP3 ADD MSTORE PUSH5 0x7665727365 PUSH1 0xD8 SHL PUSH1 0x64 DUP3 ADD MSTORE PUSH1 0x84 ADD PUSH1 0x40 MLOAD DUP1 SWAP2 SUB SWAP1 REVERT JUMPDEST PUSH1 0x0 PUSH2 0x387 DUP4 PUSH2 0xD1F JUMP JUMPDEST PUSH1 0x40 DUP1 MLOAD DUP1 DUP3 ADD DUP3 MSTORE PUSH1 0x5 DUP2 MSTORE PUSH5 0x7468656D65 PUSH1 0xD8 SHL PUSH1 0x20 DUP1 DUP4 ADD SWAP2 DUP3 MSTORE PUSH1 0x0 DUP6 DUP2 MSTORE SWAP1 DUP2 SWAP1 MSTORE SWAP3 SWAP1 SWAP3 KECCAK256 SWAP1 MLOAD SWAP3 SWAP4 POP PUSH2 0x3C3 SWAP3 SWAP1 SWAP2 SWAP1 PUSH2 0xE3E JUMP JUMPDEST POP PUSH1 0x40 DUP1 MLOAD PUSH1 0x20 DUP1 DUP3 ADD DUP4 MSTORE PUSH1 0x1 PUSH1 0x1 PUSH1 0xA0 SHL SUB SWAP5 DUP6 AND DUP3 MSTORE PUSH1 0x0 SWAP4 DUP5 MSTORE PUSH1 0x3 SWAP1 MSTORE SWAP2 KECCAK256 SWAP1 MLOAD DUP2 SLOAD PUSH1 0x1 PUSH1 0x1 PUSH1 0xA0 SHL SUB NOT AND SWAP3 AND SWAP2 SWAP1 SWAP2 OR SWAP1 SSTORE POP JUMP JUMPDEST PUSH1 0x40 DUP1 MLOAD PUSH1 0x20 DUP2 ADD SWAP1 SWAP2 MSTORE PUSH1 0x0 DUP2 MSTORE PUSH1 0x0 PUSH2 0x41A DUP4 PUSH2 0xD1F JUMP JUMPDEST PUSH1 0x0 SWAP1 DUP2 MSTORE PUSH1 0x3 PUSH1 0x20 SWAP1 DUP2 MSTORE PUSH1 0x40 SWAP2 DUP3 SWAP1 KECCAK256 DUP3 MLOAD SWAP2 DUP3 ADD SWAP1 SWAP3 MSTORE SWAP1 SLOAD PUSH1 0x1 PUSH1 0x1 PUSH1 0xA0 SHL SUB AND DUP2 MSTORE SWAP4 SWAP3 POP POP POP JUMP JUMPDEST DUP4 MLOAD PUSH1 0x0 SWAP1 DUP2 DUP1 JUMPDEST DUP3 DUP2 LT ISZERO PUSH2 0x51F JUMPI PUSH1 0x0 DUP9 DUP3 DUP2 MLOAD DUP2 LT PUSH2 0x47A JUMPI PUSH4 0x4E487B71 PUSH1 0xE0 SHL PUSH1 0x0 MSTORE PUSH1 0x32 PUSH1 0x4 MSTORE PUSH1 0x24 PUSH1 0x0 REVERT JUMPDEST PUSH1 0x20 MUL PUSH1 0x20 ADD ADD MLOAD SWAP1 POP PUSH1 0x0 DUP9 DUP4 DUP2 MLOAD DUP2 LT PUSH2 0x4A6 JUMPI PUSH4 0x4E487B71 PUSH1 0xE0 SHL PUSH1 0x0 MSTORE PUSH1 0x32 PUSH1 0x4 MSTORE PUSH1 0x24 PUSH1 0x0 REVERT JUMPDEST PUSH1 0x20 SWAP1 DUP2 MUL SWAP2 SWAP1 SWAP2 ADD DUP2 ADD MLOAD PUSH1 0x1 PUSH1 0x1 PUSH1 0xA0 SHL SUB DUP11 AND PUSH1 0x0 SWAP1 DUP2 MSTORE PUSH1 0x4 DUP4 MSTORE PUSH1 0x40 DUP1 DUP3 KECCAK256 DUP7 DUP4 MSTORE SWAP1 SWAP4 MSTORE SWAP2 SWAP1 SWAP2 KECCAK256 SLOAD SWAP1 SWAP2 POP DUP2 EQ PUSH2 0x4EC JUMPI PUSH1 0x0 SWAP6 POP POP POP POP POP POP PUSH2 0x539 JUMP JUMPDEST PUSH1 0x0 DUP3 DUP2 MSTORE PUSH1 0x7 PUSH1 0x20 MSTORE PUSH1 0x40 SWAP1 KECCAK256 PUSH1 0x3 ADD SLOAD PUSH2 0x508 SWAP1 DUP6 PUSH2 0x150D JUMP JUMPDEST SWAP4 POP POP POP DUP1 DUP1 PUSH2 0x517 SWAP1 PUSH2 0x158C JUMP JUMPDEST SWAP2 POP POP PUSH2 0x450 JUMP JUMPDEST POP DUP4 DUP2 EQ PUSH2 0x532 JUMPI PUSH1 0x0 SWAP3 POP POP POP PUSH2 0x539 JUMP JUMPDEST PUSH1 0x1 SWAP3 POP POP POP JUMPDEST SWAP5 SWAP4 POP POP POP POP JUMP JUMPDEST PUSH1 0x0 PUSH2 0x54C DUP3 PUSH2 0xD1F JUMP JUMPDEST PUSH1 0x40 DUP1 MLOAD DUP1 DUP3 ADD DUP3 MSTORE PUSH1 0x6 DUP2 MSTORE PUSH6 0x73797374656D PUSH1 0xD0 SHL PUSH1 0x20 DUP1 DUP4 ADD SWAP2 DUP3 MSTORE PUSH1 0x0 DUP6 DUP2 MSTORE SWAP1 DUP2 SWAP1 MSTORE SWAP3 SWAP1 SWAP3 KECCAK256 SWAP1 MLOAD SWAP3 SWAP4 POP PUSH2 0x589 SWAP3 SWAP1 SWAP2 SWAP1 PUSH2 0xE3E JUMP JUMPDEST POP PUSH1 0x40 DUP1 MLOAD PUSH1 0xC0 DUP2 ADD DUP3 MSTORE PUSH1 0x0 DUP1 DUP3 MSTORE PUSH1 0x20 DUP1 DUP4 ADD DUP3 DUP2 MSTORE DUP4 DUP6 ADD DUP4 DUP2 MSTORE PUSH1 0x60 DUP6 ADD DUP5 DUP2 MSTORE PUSH1 0x80 DUP7 ADD DUP6 DUP2 MSTORE PUSH1 0xA0 DUP8 ADD DUP7 DUP2 MSTORE SWAP9 DUP7 MSTORE PUSH1 0x2 SWAP5 DUP6 SWAP1 MSTORE SWAP7 SWAP1 SWAP5 KECCAK256 SWAP5 MLOAD DUP6 SLOAD PUSH1 0x1 PUSH1 0x1 PUSH1 0xA0 SHL SUB NOT SWAP1 DUP2 AND PUSH1 0x1 PUSH1 0x1 PUSH1 0xA0 SHL SUB SWAP3 DUP4 AND OR DUP8 SSTORE SWAP3 MLOAD PUSH1 0x1 DUP8 ADD DUP1 SLOAD DUP6 AND SWAP2 DUP4 AND SWAP2 SWAP1 SWAP2 OR SWAP1 SSTORE SWAP1 MLOAD SWAP3 DUP6 ADD DUP1 SLOAD DUP4 AND SWAP4 DUP3 AND SWAP4 SWAP1 SWAP4 OR SWAP1 SWAP3 SSTORE SWAP2 MLOAD PUSH1 0x3 DUP5 ADD DUP1 SLOAD DUP5 AND SWAP2 DUP4 AND SWAP2 SWAP1 SWAP2 OR SWAP1 SSTORE SWAP3 MLOAD PUSH1 0x4 DUP4 ADD DUP1 SLOAD DUP4 AND SWAP2 DUP6 AND SWAP2 SWAP1 SWAP2 OR SWAP1 SSTORE SWAP3 MLOAD PUSH1 0x5 SWAP1 SWAP2 ADD DUP1 SLOAD SWAP1 SWAP4 AND SWAP2 AND OR SWAP1 SSTORE POP JUMP JUMPDEST PUSH1 0x0 PUSH2 0x652 DUP3 PUSH2 0xD1F JUMP JUMPDEST SWAP3 SWAP2 POP POP JUMP JUMPDEST PUSH1 0x0 PUSH2 0x663 DUP4 PUSH2 0xD1F JUMP JUMPDEST PUSH1 0x0 SWAP1 DUP2 MSTORE PUSH1 0x3 PUSH1 0x20 MSTORE PUSH1 0x40 SWAP1 KECCAK256 DUP1 SLOAD PUSH1 0x1 PUSH1 0x1 PUSH1 0xA0 SHL SUB NOT AND PUSH1 0x1 PUSH1 0x1 PUSH1 0xA0 SHL SUB SWAP4 SWAP1 SWAP4 AND SWAP3 SWAP1 SWAP3 OR SWAP1 SWAP2 SSTORE POP POP JUMP JUMPDEST PUSH1 0x40 DUP1 MLOAD DUP1 DUP3 ADD SWAP1 SWAP2 MSTORE PUSH1 0x60 DUP2 MSTORE PUSH1 0x0 PUSH1 0x20 DUP3 ADD MSTORE PUSH1 0x0 PUSH2 0x6B4 DUP4 PUSH2 0xD1F JUMP JUMPDEST SWAP1 POP PUSH1 0x1 PUSH1 0x0 DUP3 DUP2 MSTORE PUSH1 0x20 ADD SWAP1 DUP2 MSTORE PUSH1 0x20 ADD PUSH1 0x0 KECCAK256 PUSH1 0x40 MLOAD DUP1 PUSH1 0x40 ADD PUSH1 0x40 MSTORE SWAP1 DUP2 PUSH1 0x0 DUP3 ADD DUP1 SLOAD PUSH2 0x6E4 SWAP1 PUSH2 0x1551 JUMP JUMPDEST DUP1 PUSH1 0x1F ADD PUSH1 0x20 DUP1 SWAP2 DIV MUL PUSH1 0x20 ADD PUSH1 0x40 MLOAD SWAP1 DUP2 ADD PUSH1 0x40 MSTORE DUP1 SWAP3 SWAP2 SWAP1 DUP2 DUP2 MSTORE PUSH1 0x20 ADD DUP3 DUP1 SLOAD PUSH2 0x710 SWAP1 PUSH2 0x1551 JUMP JUMPDEST DUP1 ISZERO PUSH2 0x75D JUMPI DUP1 PUSH1 0x1F LT PUSH2 0x732 JUMPI PUSH2 0x100 DUP1 DUP4 SLOAD DIV MUL DUP4 MSTORE SWAP2 PUSH1 0x20 ADD SWAP2 PUSH2 0x75D JUMP JUMPDEST DUP3 ADD SWAP2 SWAP1 PUSH1 0x0 MSTORE PUSH1 0x20 PUSH1 0x0 KECCAK256 SWAP1 JUMPDEST DUP2 SLOAD DUP2 MSTORE SWAP1 PUSH1 0x1 ADD SWAP1 PUSH1 0x20 ADD DUP1 DUP4 GT PUSH2 0x740 JUMPI DUP3 SWAP1 SUB PUSH1 0x1F AND DUP3 ADD SWAP2 JUMPDEST POP POP POP SWAP2 DUP4 MSTORE POP POP PUSH1 0x1 SWAP2 SWAP1 SWAP2 ADD SLOAD PUSH1 0x1 PUSH1 0x1 PUSH1 0xA0 SHL SUB AND PUSH1 0x20 SWAP1 SWAP2 ADD MSTORE SWAP4 SWAP3 POP POP POP JUMP JUMPDEST PUSH1 0x0 PUSH2 0x78D DUP7 PUSH2 0xD1F JUMP JUMPDEST PUSH1 0x0 DUP2 DUP2 MSTORE PUSH1 0x6 PUSH1 0x20 SWAP1 DUP2 MSTORE PUSH1 0x40 DUP1 DUP4 KECCAK256 DUP1 SLOAD PUSH1 0x1 PUSH1 0x1 PUSH1 0xA0 SHL SUB NOT AND CALLER OR SWAP1 SSTORE DUP1 MLOAD PUSH1 0xC0 DUP2 ADD DUP3 MSTORE DUP10 DUP2 MSTORE DUP1 DUP4 ADD DUP10 SWAP1 MSTORE DUP1 DUP3 ADD DUP9 SWAP1 MSTORE PUSH1 0x60 DUP2 DUP2 ADD DUP9 SWAP1 MSTORE PUSH1 0x80 DUP3 ADD DUP2 SWAP1 MSTORE PUSH1 0xA0 DUP3 ADD DUP2 SWAP1 MSTORE DUP6 DUP6 MSTORE PUSH1 0x7 DUP5 MSTORE SWAP2 SWAP1 SWAP4 KECCAK256 DUP4 MLOAD DUP1 MLOAD SWAP6 SWAP7 POP SWAP2 SWAP5 DUP6 SWAP5 SWAP4 SWAP2 SWAP3 PUSH2 0x802 SWAP3 DUP5 SWAP3 SWAP2 ADD SWAP1 PUSH2 0xE3E JUMP JUMPDEST POP PUSH1 0x20 DUP3 DUP2 ADD MLOAD DUP1 MLOAD PUSH2 0x81B SWAP3 PUSH1 0x1 DUP6 ADD SWAP3 ADD SWAP1 PUSH2 0xE3E JUMP JUMPDEST POP PUSH1 0x40 DUP3 ADD MLOAD DUP1 MLOAD PUSH2 0x837 SWAP2 PUSH1 0x2 DUP5 ADD SWAP2 PUSH1 0x20 SWAP1 SWAP2 ADD SWAP1 PUSH2 0xE3E JUMP JUMPDEST POP PUSH1 0x60 DUP3 ADD MLOAD PUSH1 0x3 DUP3 ADD SSTORE PUSH1 0x80 DUP3 ADD MLOAD DUP1 MLOAD PUSH2 0x85D SWAP2 PUSH1 0x4 DUP5 ADD SWAP2 PUSH1 0x20 SWAP1 SWAP2 ADD SWAP1 PUSH2 0xEC2 JUMP JUMPDEST POP PUSH1 0xA0 DUP3 ADD MLOAD DUP1 MLOAD PUSH2 0x879 SWAP2 PUSH1 0x5 DUP5 ADD SWAP2 PUSH1 0x20 SWAP1 SWAP2 ADD SWAP1 PUSH2 0xEC2 JUMP JUMPDEST POP POP POP PUSH1 0x0 DUP4 DUP2 MSTORE PUSH1 0x6 PUSH1 0x20 SWAP1 DUP2 MSTORE PUSH1 0x40 DUP1 DUP4 KECCAK256 SLOAD PUSH1 0x7 SWAP1 SWAP3 MSTORE SWAP2 DUP3 SWAP1 KECCAK256 PUSH1 0x3 DUP2 ADD SLOAD SWAP3 MLOAD PUSH32 0xC6791BE7B88BB77BCADE458D5D3A0246FB3FD0E48ACAD90139BFE7BF76D7BB4B SWAP4 PUSH2 0x8D9 SWAP4 PUSH1 0x1 PUSH1 0x1 PUSH1 0xA0 SHL SUB AND SWAP3 SWAP2 PUSH1 0x4 DUP4 ADD SWAP1 PUSH2 0x1398 JUMP JUMPDEST PUSH1 0x40 MLOAD DUP1 SWAP2 SUB SWAP1 LOG1 POP POP POP POP POP POP POP POP JUMP JUMPDEST PUSH1 0x0 DUP2 PUSH1 0x40 MLOAD PUSH1 0x20 ADD PUSH2 0x8FE SWAP2 SWAP1 PUSH2 0x137C JUMP JUMPDEST PUSH1 0x40 MLOAD PUSH1 0x20 DUP2 DUP4 SUB SUB DUP2 MSTORE SWAP1 PUSH1 0x40 MSTORE DUP1 MLOAD SWAP1 PUSH1 0x20 ADD KECCAK256 DUP4 PUSH1 0x40 MLOAD PUSH1 0x20 ADD PUSH2 0x925 SWAP2 SWAP1 PUSH2 0x137C JUMP JUMPDEST PUSH1 0x40 MLOAD PUSH1 0x20 DUP2 DUP4 SUB SUB DUP2 MSTORE SWAP1 PUSH1 0x40 MSTORE DUP1 MLOAD SWAP1 PUSH1 0x20 ADD KECCAK256 EQ SWAP1 POP SWAP3 SWAP2 POP POP JUMP JUMPDEST PUSH1 0x0 PUSH2 0x94F DUP4 PUSH2 0xD1F JUMP JUMPDEST PUSH1 0x0 DUP2 DUP2 MSTORE PUSH1 0x6 PUSH1 0x20 MSTORE PUSH1 0x40 SWAP1 KECCAK256 SLOAD SWAP1 SWAP2 POP PUSH1 0x1 PUSH1 0x1 PUSH1 0xA0 SHL SUB AND CALLER EQ PUSH2 0x975 JUMPI PUSH1 0x0 DUP1 REVERT JUMPDEST PUSH1 0x0 DUP2 DUP2 MSTORE PUSH1 0x7 PUSH1 0x20 DUP2 DUP2 MSTORE PUSH1 0x40 DUP1 DUP5 KECCAK256 PUSH1 0x4 DUP2 ADD DUP1 SLOAD PUSH1 0x1 DUP2 DUP2 ADD DUP4 SSTORE DUP3 DUP9 MSTORE DUP6 DUP9 KECCAK256 SWAP1 SWAP2 ADD DUP9 SWAP1 SSTORE PUSH1 0x5 DUP4 ADD DUP1 SLOAD SWAP2 DUP3 ADD DUP2 SSTORE DUP8 MSTORE DUP5 DUP8 KECCAK256 ADD DUP9 SWAP1 SSTORE DUP7 DUP7 MSTORE PUSH1 0x6 DUP5 MSTORE SWAP5 DUP3 SWAP1 KECCAK256 SLOAD SWAP4 SWAP1 SWAP3 MSTORE PUSH1 0x3 DUP3 ADD SLOAD SWAP1 MLOAD PUSH32 0xC6791BE7B88BB77BCADE458D5D3A0246FB3FD0E48ACAD90139BFE7BF76D7BB4B SWAP5 PUSH2 0xA01 SWAP5 PUSH1 0x1 PUSH1 0x1 PUSH1 0xA0 SHL SUB AND SWAP4 SWAP3 SWAP2 PUSH2 0x1398 JUMP JUMPDEST PUSH1 0x40 MLOAD DUP1 SWAP2 SUB SWAP1 LOG1 POP POP POP JUMP JUMPDEST PUSH1 0x0 PUSH2 0xA19 DUP3 PUSH2 0xD1F JUMP JUMPDEST PUSH1 0x0 DUP2 DUP2 MSTORE PUSH1 0x7 PUSH1 0x20 SWAP1 DUP2 MSTORE PUSH1 0x40 SWAP2 DUP3 SWAP1 KECCAK256 PUSH1 0x4 ADD DUP1 SLOAD DUP4 MLOAD DUP2 DUP5 MUL DUP2 ADD DUP5 ADD SWAP1 SWAP5 MSTORE DUP1 DUP5 MSTORE SWAP4 SWAP5 POP PUSH2 0xAE0 SWAP4 SWAP1 SWAP2 DUP4 ADD DUP3 DUP3 DUP1 ISZERO PUSH2 0xA77 JUMPI PUSH1 0x20 MUL DUP3 ADD SWAP2 SWAP1 PUSH1 0x0 MSTORE PUSH1 0x20 PUSH1 0x0 KECCAK256 SWAP1 JUMPDEST DUP2 SLOAD DUP2 MSTORE PUSH1 0x20 ADD SWAP1 PUSH1 0x1 ADD SWAP1 DUP1 DUP4 GT PUSH2 0xA63 JUMPI JUMPDEST POP POP POP PUSH1 0x0 DUP6 DUP2 MSTORE PUSH1 0x7 PUSH1 0x20 SWAP1 DUP2 MSTORE PUSH1 0x40 SWAP2 DUP3 SWAP1 KECCAK256 PUSH1 0x5 ADD DUP1 SLOAD DUP4 MLOAD DUP2 DUP5 MUL DUP2 ADD DUP5 ADD SWAP1 SWAP5 MSTORE DUP1 DUP5 MSTORE SWAP3 SWAP5 POP SWAP3 POP DUP4 ADD DUP3 DUP3 DUP1 ISZERO PUSH2 0xAD4 JUMPI PUSH1 0x20 MUL DUP3 ADD SWAP2 SWAP1 PUSH1 0x0 MSTORE PUSH1 0x20 PUSH1 0x0 KECCAK256 SWAP1 JUMPDEST DUP2 SLOAD DUP2 MSTORE PUSH1 0x20 ADD SWAP1 PUSH1 0x1 ADD SWAP1 DUP1 DUP4 GT PUSH2 0xAC0 JUMPI JUMPDEST POP POP POP POP POP CALLER CALLVALUE PUSH2 0x448 JUMP JUMPDEST PUSH2 0xAE9 JUMPI PUSH1 0x0 DUP1 REVERT JUMPDEST CALLER PUSH1 0x0 SWAP1 DUP2 MSTORE PUSH1 0x4 PUSH1 0x20 SWAP1 DUP2 MSTORE PUSH1 0x40 DUP1 DUP4 KECCAK256 DUP5 DUP5 MSTORE SWAP1 SWAP2 MSTORE DUP2 KECCAK256 DUP1 SLOAD PUSH1 0x1 SWAP3 SWAP1 PUSH2 0xB14 SWAP1 DUP5 SWAP1 PUSH2 0x150D JUMP JUMPDEST SWAP1 SWAP2 SSTORE POP POP PUSH1 0x0 DUP2 DUP2 MSTORE PUSH1 0x7 PUSH1 0x20 SWAP1 DUP2 MSTORE PUSH1 0x40 DUP1 DUP4 KECCAK256 PUSH1 0x3 ADD SLOAD PUSH1 0x6 SWAP1 SWAP3 MSTORE DUP3 KECCAK256 PUSH1 0x1 ADD DUP1 SLOAD SWAP2 SWAP3 SWAP1 SWAP2 PUSH2 0xB49 SWAP1 DUP5 SWAP1 PUSH2 0x150D JUMP JUMPDEST SWAP1 SWAP2 SSTORE POP POP PUSH1 0x0 DUP2 DUP2 MSTORE PUSH1 0x6 PUSH1 0x20 SWAP1 DUP2 MSTORE PUSH1 0x40 SWAP2 DUP3 SWAP1 KECCAK256 DUP1 SLOAD PUSH1 0x1 SWAP1 SWAP2 ADD SLOAD DUP4 MLOAD PUSH1 0x1 PUSH1 0x1 PUSH1 0xA0 SHL SUB SWAP1 SWAP3 AND DUP3 MSTORE SWAP2 DUP2 ADD SWAP2 SWAP1 SWAP2 MSTORE PUSH32 0x223C28139B72831AC0A992B596A41A941624C483C2ACE9633B8556F63CEEFAD4 SWAP2 ADD JUMPDEST PUSH1 0x40 MLOAD DUP1 SWAP2 SUB SWAP1 LOG1 POP POP JUMP JUMPDEST PUSH1 0x40 DUP1 MLOAD PUSH1 0xC0 DUP2 ADD DUP3 MSTORE PUSH1 0x0 DUP1 DUP3 MSTORE PUSH1 0x20 DUP3 ADD DUP2 SWAP1 MSTORE SWAP2 DUP2 ADD DUP3 SWAP1 MSTORE PUSH1 0x60 DUP2 ADD DUP3 SWAP1 MSTORE PUSH1 0x80 DUP2 ADD DUP3 SWAP1 MSTORE PUSH1 0xA0 DUP2 ADD DUP3 SWAP1 MSTORE SWAP1 PUSH2 0xBE9 DUP4 PUSH2 0xD1F JUMP JUMPDEST PUSH1 0x0 SWAP1 DUP2 MSTORE PUSH1 0x2 PUSH1 0x20 DUP2 DUP2 MSTORE PUSH1 0x40 SWAP3 DUP4 SWAP1 KECCAK256 DUP4 MLOAD PUSH1 0xC0 DUP2 ADD DUP6 MSTORE DUP2 SLOAD PUSH1 0x1 PUSH1 0x1 PUSH1 0xA0 SHL SUB SWAP1 DUP2 AND DUP3 MSTORE PUSH1 0x1 DUP4 ADD SLOAD DUP2 AND SWAP4 DUP3 ADD SWAP4 SWAP1 SWAP4 MSTORE SWAP3 DUP2 ADD SLOAD DUP3 AND SWAP4 DUP4 ADD SWAP4 SWAP1 SWAP4 MSTORE PUSH1 0x3 DUP4 ADD SLOAD DUP2 AND PUSH1 0x60 DUP4 ADD MSTORE PUSH1 0x4 DUP4 ADD SLOAD DUP2 AND PUSH1 0x80 DUP4 ADD MSTORE PUSH1 0x5 SWAP1 SWAP3 ADD SLOAD SWAP1 SWAP2 AND PUSH1 0xA0 DUP3 ADD MSTORE SWAP4 SWAP3 POP POP POP JUMP JUMPDEST PUSH1 0x0 PUSH2 0xC65 DUP5 PUSH2 0xD1F JUMP JUMPDEST SWAP1 POP PUSH2 0xC91 DUP4 PUSH1 0x40 MLOAD DUP1 PUSH1 0x40 ADD PUSH1 0x40 MSTORE DUP1 PUSH1 0x8 DUP2 MSTORE PUSH1 0x20 ADD PUSH8 0x3637B1B0BA34B7B7 PUSH1 0xC1 SHL DUP2 MSTORE POP PUSH2 0x8EB JUMP JUMPDEST ISZERO PUSH2 0xCBE JUMPI PUSH1 0x0 DUP2 DUP2 MSTORE PUSH1 0x2 PUSH1 0x20 MSTORE PUSH1 0x40 SWAP1 KECCAK256 DUP1 SLOAD PUSH1 0x1 PUSH1 0x1 PUSH1 0xA0 SHL SUB NOT AND PUSH1 0x1 PUSH1 0x1 PUSH1 0xA0 SHL SUB DUP5 AND OR SWAP1 SSTORE JUMPDEST POP POP POP POP JUMP JUMPDEST PUSH1 0x0 PUSH2 0xCCF DUP3 PUSH2 0xD1F JUMP JUMPDEST CALLER PUSH1 0x0 DUP2 DUP2 MSTORE PUSH1 0x4 PUSH1 0x20 SWAP1 DUP2 MSTORE PUSH1 0x40 DUP1 DUP4 KECCAK256 DUP6 DUP5 MSTORE DUP3 MSTORE SWAP2 DUP3 SWAP1 KECCAK256 SLOAD DUP3 MLOAD SWAP4 DUP5 MSTORE SWAP1 DUP4 ADD MSTORE SWAP2 SWAP3 POP PUSH32 0x6D6FE17EF15C28C3AC5EBA0274D404C20646C642209C2C79D221978B3F8AD994 SWAP2 ADD PUSH2 0xBA2 JUMP JUMPDEST PUSH1 0x0 PUSH2 0x652 DUP3 PUSH1 0x0 JUMPDEST PUSH1 0x0 DUP2 DUP4 MLOAD GT PUSH2 0xD3A JUMPI POP PUSH1 0x0 PUSH2 0x652 JUMP JUMPDEST PUSH1 0x0 PUSH2 0xD46 DUP5 DUP5 PUSH2 0xDA2 JUMP JUMPDEST SWAP1 POP PUSH2 0xD66 DUP5 PUSH2 0xD56 DUP4 DUP7 PUSH2 0x150D JUMP JUMPDEST PUSH2 0xD61 SWAP1 PUSH1 0x1 PUSH2 0x150D JUMP JUMPDEST PUSH2 0xD28 JUMP JUMPDEST PUSH2 0xD71 DUP6 DUP6 DUP5 PUSH2 0xE1A JUMP JUMPDEST PUSH1 0x40 DUP1 MLOAD PUSH1 0x20 DUP2 ADD SWAP4 SWAP1 SWAP4 MSTORE DUP3 ADD MSTORE PUSH1 0x60 ADD PUSH1 0x40 MLOAD PUSH1 0x20 DUP2 DUP4 SUB SUB DUP2 MSTORE SWAP1 PUSH1 0x40 MSTORE DUP1 MLOAD SWAP1 PUSH1 0x20 ADD KECCAK256 SWAP2 POP POP SWAP3 SWAP2 POP POP JUMP JUMPDEST PUSH1 0x0 DUP1 JUMPDEST DUP4 MLOAD PUSH2 0xDB2 DUP3 DUP6 PUSH2 0x150D JUMP JUMPDEST EQ ISZERO DUP1 ISZERO PUSH2 0xDFC JUMPI POP DUP4 PUSH2 0xDC6 DUP3 DUP6 PUSH2 0x150D JUMP JUMPDEST DUP2 MLOAD DUP2 LT PUSH2 0xDE4 JUMPI PUSH4 0x4E487B71 PUSH1 0xE0 SHL PUSH1 0x0 MSTORE PUSH1 0x32 PUSH1 0x4 MSTORE PUSH1 0x24 PUSH1 0x0 REVERT JUMPDEST PUSH1 0x20 SWAP2 ADD ADD MLOAD PUSH1 0x1 PUSH1 0x1 PUSH1 0xF8 SHL SUB NOT AND PUSH1 0x17 PUSH1 0xF9 SHL EQ ISZERO JUMPDEST ISZERO PUSH2 0xE13 JUMPI DUP1 PUSH2 0xE0B DUP2 PUSH2 0x158C JUMP JUMPDEST SWAP2 POP POP PUSH2 0xDA6 JUMP JUMPDEST SWAP4 SWAP3 POP POP POP JUMP JUMPDEST DUP3 MLOAD PUSH1 0x0 SWAP1 PUSH2 0xE29 DUP4 DUP6 PUSH2 0x150D JUMP JUMPDEST GT ISZERO PUSH2 0xE34 JUMPI PUSH1 0x0 DUP1 REVERT JUMPDEST POP SWAP2 ADD PUSH1 0x20 ADD KECCAK256 SWAP1 JUMP JUMPDEST DUP3 DUP1 SLOAD PUSH2 0xE4A SWAP1 PUSH2 0x1551 JUMP JUMPDEST SWAP1 PUSH1 0x0 MSTORE PUSH1 0x20 PUSH1 0x0 KECCAK256 SWAP1 PUSH1 0x1F ADD PUSH1 0x20 SWAP1 DIV DUP2 ADD SWAP3 DUP3 PUSH2 0xE6C JUMPI PUSH1 0x0 DUP6 SSTORE PUSH2 0xEB2 JUMP JUMPDEST DUP3 PUSH1 0x1F LT PUSH2 0xE85 JUMPI DUP1 MLOAD PUSH1 0xFF NOT AND DUP4 DUP1 ADD OR DUP6 SSTORE PUSH2 0xEB2 JUMP JUMPDEST DUP3 DUP1 ADD PUSH1 0x1 ADD DUP6 SSTORE DUP3 ISZERO PUSH2 0xEB2 JUMPI SWAP2 DUP3 ADD JUMPDEST DUP3 DUP2 GT ISZERO PUSH2 0xEB2 JUMPI DUP3 MLOAD DUP3 SSTORE SWAP2 PUSH1 0x20 ADD SWAP2 SWAP1 PUSH1 0x1 ADD SWAP1 PUSH2 0xE97 JUMP JUMPDEST POP PUSH2 0xEBE SWAP3 SWAP2 POP PUSH2 0xEFC JUMP JUMPDEST POP SWAP1 JUMP JUMPDEST DUP3 DUP1 SLOAD DUP3 DUP3 SSTORE SWAP1 PUSH1 0x0 MSTORE PUSH1 0x20 PUSH1 0x0 KECCAK256 SWAP1 DUP2 ADD SWAP3 DUP3 ISZERO PUSH2 0xEB2 JUMPI SWAP2 PUSH1 0x20 MUL DUP3 ADD DUP3 DUP2 GT ISZERO PUSH2 0xEB2 JUMPI DUP3 MLOAD DUP3 SSTORE SWAP2 PUSH1 0x20 ADD SWAP2 SWAP1 PUSH1 0x1 ADD SWAP1 PUSH2 0xE97 JUMP JUMPDEST JUMPDEST DUP1 DUP3 GT ISZERO PUSH2 0xEBE JUMPI PUSH1 0x0 DUP2 SSTORE PUSH1 0x1 ADD PUSH2 0xEFD JUMP JUMPDEST PUSH1 0x0 PUSH8 0xFFFFFFFFFFFFFFFF DUP4 GT ISZERO PUSH2 0xF2B JUMPI PUSH2 0xF2B PUSH2 0x15BD JUMP JUMPDEST PUSH2 0xF3E PUSH1 0x1F DUP5 ADD PUSH1 0x1F NOT AND PUSH1 0x20 ADD PUSH2 0x14B8 JUMP JUMPDEST SWAP1 POP DUP3 DUP2 MSTORE DUP4 DUP4 DUP4 ADD GT ISZERO PUSH2 0xF52 JUMPI PUSH1 0x0 DUP1 REVERT JUMPDEST DUP3 DUP3 PUSH1 0x20 DUP4 ADD CALLDATACOPY PUSH1 0x0 PUSH1 0x20 DUP5 DUP4 ADD ADD MSTORE SWAP4 SWAP3 POP POP POP JUMP JUMPDEST DUP1 CALLDATALOAD PUSH1 0x1 PUSH1 0x1 PUSH1 0xA0 SHL SUB DUP2 AND DUP2 EQ PUSH2 0xF80 JUMPI PUSH1 0x0 DUP1 REVERT JUMPDEST SWAP2 SWAP1 POP JUMP JUMPDEST PUSH1 0x0 DUP3 PUSH1 0x1F DUP4 ADD SLT PUSH2 0xF95 JUMPI DUP1 DUP2 REVERT JUMPDEST DUP2 CALLDATALOAD PUSH1 0x20 PUSH2 0xFAA PUSH2 0xFA5 DUP4 PUSH2 0x14E9 JUMP JUMPDEST PUSH2 0x14B8 JUMP JUMPDEST DUP1 DUP4 DUP3 MSTORE DUP3 DUP3 ADD SWAP2 POP DUP3 DUP7 ADD DUP8 DUP5 DUP7 PUSH1 0x5 SHL DUP10 ADD ADD GT ISZERO PUSH2 0xFC9 JUMPI DUP6 DUP7 REVERT JUMPDEST DUP6 JUMPDEST DUP6 DUP2 LT ISZERO PUSH2 0xFE7 JUMPI DUP2 CALLDATALOAD DUP5 MSTORE SWAP3 DUP5 ADD SWAP3 SWAP1 DUP5 ADD SWAP1 PUSH1 0x1 ADD PUSH2 0xFCB JUMP JUMPDEST POP SWAP1 SWAP8 SWAP7 POP POP POP POP POP POP POP JUMP JUMPDEST PUSH1 0x0 DUP3 PUSH1 0x1F DUP4 ADD SLT PUSH2 0x1004 JUMPI DUP1 DUP2 REVERT JUMPDEST PUSH2 0xE13 DUP4 DUP4 CALLDATALOAD PUSH1 0x20 DUP6 ADD PUSH2 0xF11 JUMP JUMPDEST PUSH1 0x0 DUP1 PUSH1 0x0 DUP1 PUSH1 0x80 DUP6 DUP8 SUB SLT ISZERO PUSH2 0x1028 JUMPI DUP4 DUP5 REVERT JUMPDEST DUP5 CALLDATALOAD PUSH8 0xFFFFFFFFFFFFFFFF DUP1 DUP3 GT ISZERO PUSH2 0x103F JUMPI DUP6 DUP7 REVERT JUMPDEST DUP2 DUP8 ADD SWAP2 POP DUP8 PUSH1 0x1F DUP4 ADD SLT PUSH2 0x1052 JUMPI DUP6 DUP7 REVERT JUMPDEST DUP2 CALLDATALOAD PUSH1 0x20 PUSH2 0x1062 PUSH2 0xFA5 DUP4 PUSH2 0x14E9 JUMP JUMPDEST DUP1 DUP4 DUP3 MSTORE DUP3 DUP3 ADD SWAP2 POP DUP3 DUP7 ADD DUP13 DUP5 DUP7 PUSH1 0x5 SHL DUP10 ADD ADD GT ISZERO PUSH2 0x1081 JUMPI DUP11 DUP12 REVERT JUMPDEST DUP11 SWAP7 POP JUMPDEST DUP5 DUP8 LT ISZERO PUSH2 0x10A3 JUMPI DUP1 CALLDATALOAD DUP4 MSTORE PUSH1 0x1 SWAP7 SWAP1 SWAP7 ADD SWAP6 SWAP2 DUP4 ADD SWAP2 DUP4 ADD PUSH2 0x1085 JUMP JUMPDEST POP SWAP9 POP POP DUP9 ADD CALLDATALOAD SWAP3 POP POP DUP1 DUP3 GT ISZERO PUSH2 0x10B9 JUMPI DUP5 DUP6 REVERT JUMPDEST POP PUSH2 0x10C6 DUP8 DUP3 DUP9 ADD PUSH2 0xF85 JUMP JUMPDEST SWAP4 POP POP PUSH2 0x10D5 PUSH1 0x40 DUP7 ADD PUSH2 0xF69 JUMP JUMPDEST SWAP4 SWAP7 SWAP3 SWAP6 POP SWAP3 SWAP4 PUSH1 0x60 ADD CALLDATALOAD SWAP3 POP POP JUMP JUMPDEST PUSH1 0x0 DUP1 PUSH1 0x0 PUSH1 0x60 DUP5 DUP7 SUB SLT ISZERO PUSH2 0x10F9 JUMPI DUP3 DUP4 REVERT JUMPDEST DUP4 CALLDATALOAD PUSH8 0xFFFFFFFFFFFFFFFF DUP1 DUP3 GT ISZERO PUSH2 0x1110 JUMPI DUP5 DUP6 REVERT JUMPDEST DUP2 DUP7 ADD SWAP2 POP DUP7 PUSH1 0x1F DUP4 ADD SLT PUSH2 0x1123 JUMPI DUP5 DUP6 REVERT JUMPDEST PUSH2 0x1132 DUP8 DUP4 CALLDATALOAD PUSH1 0x20 DUP6 ADD PUSH2 0xF11 JUMP JUMPDEST SWAP5 POP PUSH1 0x20 DUP7 ADD CALLDATALOAD SWAP2 POP DUP1 DUP3 GT ISZERO PUSH2 0x1147 JUMPI DUP4 DUP5 REVERT JUMPDEST POP PUSH2 0x1154 DUP7 DUP3 DUP8 ADD PUSH2 0xFF4 JUMP JUMPDEST SWAP3 POP POP PUSH2 0x1163 PUSH1 0x40 DUP6 ADD PUSH2 0xF69 JUMP JUMPDEST SWAP1 POP SWAP3 POP SWAP3 POP SWAP3 JUMP JUMPDEST PUSH1 0x0 PUSH1 0x20 DUP3 DUP5 SUB SLT ISZERO PUSH2 0x117D JUMPI DUP1 DUP2 REVERT JUMPDEST DUP2 CALLDATALOAD PUSH8 0xFFFFFFFFFFFFFFFF DUP2 GT ISZERO PUSH2 0x1193 JUMPI DUP2 DUP3 REVERT JUMPDEST PUSH2 0x539 DUP5 DUP3 DUP6 ADD PUSH2 0xFF4 JUMP JUMPDEST PUSH1 0x0 DUP1 PUSH1 0x40 DUP4 DUP6 SUB SLT ISZERO PUSH2 0x11B1 JUMPI DUP2 DUP3 REVERT JUMPDEST DUP3 CALLDATALOAD PUSH8 0xFFFFFFFFFFFFFFFF DUP2 GT ISZERO PUSH2 0x11C7 JUMPI DUP3 DUP4 REVERT JUMPDEST PUSH2 0x11D3 DUP6 DUP3 DUP7 ADD PUSH2 0xFF4 JUMP JUMPDEST SWAP3 POP POP PUSH2 0x11E2 PUSH1 0x20 DUP5 ADD PUSH2 0xF69 JUMP JUMPDEST SWAP1 POP SWAP3 POP SWAP3 SWAP1 POP JUMP JUMPDEST PUSH1 0x0 DUP1 PUSH1 0x40 DUP4 DUP6 SUB SLT ISZERO PUSH2 0x11FD JUMPI DUP2 DUP3 REVERT JUMPDEST DUP3 CALLDATALOAD PUSH8 0xFFFFFFFFFFFFFFFF DUP1 DUP3 GT ISZERO PUSH2 0x1214 JUMPI DUP4 DUP5 REVERT JUMPDEST PUSH2 0x1220 DUP7 DUP4 DUP8 ADD PUSH2 0xFF4 JUMP JUMPDEST SWAP4 POP PUSH1 0x20 DUP6 ADD CALLDATALOAD SWAP2 POP DUP1 DUP3 GT ISZERO PUSH2 0x1235 JUMPI DUP3 DUP4 REVERT JUMPDEST POP PUSH2 0x1242 DUP6 DUP3 DUP7 ADD PUSH2 0xFF4 JUMP JUMPDEST SWAP2 POP POP SWAP3 POP SWAP3 SWAP1 POP JUMP JUMPDEST PUSH1 0x0 DUP1 PUSH1 0x0 DUP1 PUSH1 0x0 PUSH1 0xA0 DUP7 DUP9 SUB SLT ISZERO PUSH2 0x1263 JUMPI DUP1 DUP2 REVERT JUMPDEST DUP6 CALLDATALOAD PUSH8 0xFFFFFFFFFFFFFFFF DUP1 DUP3 GT ISZERO PUSH2 0x127A JUMPI DUP3 DUP4 REVERT JUMPDEST PUSH2 0x1286 DUP10 DUP4 DUP11 ADD PUSH2 0xFF4 JUMP JUMPDEST SWAP7 POP PUSH1 0x20 DUP9 ADD CALLDATALOAD SWAP2 POP DUP1 DUP3 GT ISZERO PUSH2 0x129B JUMPI DUP3 DUP4 REVERT JUMPDEST PUSH2 0x12A7 DUP10 DUP4 DUP11 ADD PUSH2 0xFF4 JUMP JUMPDEST SWAP6 POP PUSH1 0x40 DUP9 ADD CALLDATALOAD SWAP2 POP DUP1 DUP3 GT ISZERO PUSH2 0x12BC JUMPI DUP3 DUP4 REVERT JUMPDEST PUSH2 0x12C8 DUP10 DUP4 DUP11 ADD PUSH2 0xFF4 JUMP JUMPDEST SWAP5 POP PUSH1 0x60 DUP9 ADD CALLDATALOAD SWAP2 POP DUP1 DUP3 GT ISZERO PUSH2 0x12DD JUMPI DUP3 DUP4 REVERT JUMPDEST POP PUSH2 0x12EA DUP9 DUP3 DUP10 ADD PUSH2 0xFF4 JUMP JUMPDEST SWAP6 SWAP9 SWAP5 SWAP8 POP SWAP3 SWAP6 PUSH1 0x80 ADD CALLDATALOAD SWAP4 SWAP3 POP POP POP JUMP JUMPDEST PUSH1 0x0 DUP1 PUSH1 0x40 DUP4 DUP6 SUB SLT ISZERO PUSH2 0x130E JUMPI DUP2 DUP3 REVERT JUMPDEST DUP3 CALLDATALOAD PUSH8 0xFFFFFFFFFFFFFFFF DUP2 GT ISZERO PUSH2 0x1324 JUMPI DUP3 DUP4 REVERT JUMPDEST PUSH2 0x1330 DUP6 DUP3 DUP7 ADD PUSH2 0xFF4 JUMP JUMPDEST SWAP6 PUSH1 0x20 SWAP5 SWAP1 SWAP5 ADD CALLDATALOAD SWAP5 POP POP POP POP JUMP JUMPDEST PUSH1 0x0 DUP2 SLOAD DUP1 DUP5 MSTORE PUSH1 0x20 DUP1 DUP6 ADD SWAP5 POP DUP4 DUP4 MSTORE DUP1 DUP4 KECCAK256 DUP4 JUMPDEST DUP4 DUP2 LT ISZERO PUSH2 0x1371 JUMPI DUP2 SLOAD DUP8 MSTORE SWAP6 DUP3 ADD SWAP6 PUSH1 0x1 SWAP2 DUP3 ADD SWAP2 ADD PUSH2 0x1355 JUMP JUMPDEST POP SWAP5 SWAP6 SWAP5 POP POP POP POP POP JUMP JUMPDEST PUSH1 0x0 DUP3 MLOAD PUSH2 0x138E DUP2 DUP5 PUSH1 0x20 DUP8 ADD PUSH2 0x1525 JUMP JUMPDEST SWAP2 SWAP1 SWAP2 ADD SWAP3 SWAP2 POP POP JUMP JUMPDEST PUSH1 0x1 DUP1 PUSH1 0xA0 SHL SUB DUP6 AND DUP2 MSTORE PUSH1 0x0 PUSH1 0x20 PUSH1 0x80 DUP2 DUP5 ADD MSTORE DUP2 DUP7 SLOAD DUP4 PUSH1 0x1 DUP3 DUP2 SHR SWAP2 POP DUP1 DUP4 AND DUP1 PUSH2 0x13C7 JUMPI PUSH1 0x7F DUP4 AND SWAP3 POP JUMPDEST DUP6 DUP4 LT DUP2 EQ ISZERO PUSH2 0x13E5 JUMPI PUSH4 0x4E487B71 PUSH1 0xE0 SHL DUP8 MSTORE PUSH1 0x22 PUSH1 0x4 MSTORE PUSH1 0x24 DUP8 REVERT JUMPDEST PUSH1 0x80 DUP9 ADD DUP4 SWAP1 MSTORE PUSH1 0xA0 DUP9 ADD DUP2 DUP1 ISZERO PUSH2 0x1404 JUMPI PUSH1 0x1 DUP2 EQ PUSH2 0x1415 JUMPI PUSH2 0x143F JUMP JUMPDEST PUSH1 0xFF NOT DUP7 AND DUP3 MSTORE DUP8 DUP3 ADD SWAP7 POP PUSH2 0x143F JUMP JUMPDEST PUSH1 0x0 DUP14 DUP2 MSTORE PUSH1 0x20 SWAP1 KECCAK256 DUP10 JUMPDEST DUP7 DUP2 LT ISZERO PUSH2 0x1439 JUMPI DUP2 SLOAD DUP5 DUP3 ADD MSTORE SWAP1 DUP6 ADD SWAP1 DUP10 ADD PUSH2 0x1420 JUMP JUMPDEST DUP4 ADD SWAP8 POP POP JUMPDEST POP POP POP POP POP POP DUP6 PUSH1 0x40 DUP6 ADD MSTORE DUP4 DUP2 SUB PUSH1 0x60 DUP6 ADD MSTORE PUSH2 0x145D DUP2 DUP7 PUSH2 0x133F JUMP JUMPDEST SWAP9 SWAP8 POP POP POP POP POP POP POP POP JUMP JUMPDEST PUSH1 0x20 DUP2 MSTORE PUSH1 0x0 DUP3 MLOAD PUSH1 0x40 PUSH1 0x20 DUP5 ADD MSTORE DUP1 MLOAD DUP1 PUSH1 0x60 DUP6 ADD MSTORE PUSH2 0x1491 DUP2 PUSH1 0x80 DUP7 ADD PUSH1 0x20 DUP6 ADD PUSH2 0x1525 JUMP JUMPDEST PUSH1 0x20 SWAP5 SWAP1 SWAP5 ADD MLOAD PUSH1 0x1 PUSH1 0x1 PUSH1 0xA0 SHL SUB AND PUSH1 0x40 DUP5 ADD MSTORE POP POP PUSH1 0x80 PUSH1 0x1F SWAP1 SWAP3 ADD PUSH1 0x1F NOT AND ADD ADD SWAP1 JUMP JUMPDEST PUSH1 0x40 MLOAD PUSH1 0x1F DUP3 ADD PUSH1 0x1F NOT AND DUP2 ADD PUSH8 0xFFFFFFFFFFFFFFFF DUP2 GT DUP3 DUP3 LT OR ISZERO PUSH2 0x14E1 JUMPI PUSH2 0x14E1 PUSH2 0x15BD JUMP JUMPDEST PUSH1 0x40 MSTORE SWAP2 SWAP1 POP JUMP JUMPDEST PUSH1 0x0 PUSH8 0xFFFFFFFFFFFFFFFF DUP3 GT ISZERO PUSH2 0x1503 JUMPI PUSH2 0x1503 PUSH2 0x15BD JUMP JUMPDEST POP PUSH1 0x5 SHL PUSH1 0x20 ADD SWAP1 JUMP JUMPDEST PUSH1 0x0 DUP3 NOT DUP3 GT ISZERO PUSH2 0x1520 JUMPI PUSH2 0x1520 PUSH2 0x15A7 JUMP JUMPDEST POP ADD SWAP1 JUMP JUMPDEST PUSH1 0x0 JUMPDEST DUP4 DUP2 LT ISZERO PUSH2 0x1540 JUMPI DUP2 DUP2 ADD MLOAD DUP4 DUP3 ADD MSTORE PUSH1 0x20 ADD PUSH2 0x1528 JUMP JUMPDEST DUP4 DUP2 GT ISZERO PUSH2 0xCBE JUMPI POP POP PUSH1 0x0 SWAP2 ADD MSTORE JUMP JUMPDEST PUSH1 0x1 DUP2 DUP2 SHR SWAP1 DUP3 AND DUP1 PUSH2 0x1565 JUMPI PUSH1 0x7F DUP3 AND SWAP2 POP JUMPDEST PUSH1 0x20 DUP3 LT DUP2 EQ ISZERO PUSH2 0x1586 JUMPI PUSH4 0x4E487B71 PUSH1 0xE0 SHL PUSH1 0x0 MSTORE PUSH1 0x22 PUSH1 0x4 MSTORE PUSH1 0x24 PUSH1 0x0 REVERT JUMPDEST POP SWAP2 SWAP1 POP JUMP JUMPDEST PUSH1 0x0 PUSH1 0x0 NOT DUP3 EQ ISZERO PUSH2 0x15A0 JUMPI PUSH2 0x15A0 PUSH2 0x15A7 JUMP JUMPDEST POP PUSH1 0x1 ADD SWAP1 JUMP JUMPDEST PUSH4 0x4E487B71 PUSH1 0xE0 SHL PUSH1 0x0 MSTORE PUSH1 0x11 PUSH1 0x4 MSTORE PUSH1 0x24 PUSH1 0x0 REVERT JUMPDEST PUSH4 0x4E487B71 PUSH1 0xE0 SHL PUSH1 0x0 MSTORE PUSH1 0x41 PUSH1 0x4 MSTORE PUSH1 0x24 PUSH1 0x0 REVERT INVALID LOG2 PUSH5 0x6970667358 0x22 SLT KECCAK256 SHR 0xBD SWAP5 PUSH9 0x524F8A14AB097432 0xEF SWAP4 DIFFICULTY 0xDC 0xB6 0xAC MUL DUP8 0xF7 0x49 0x25 SWAP8 SWAP8 ORIGIN PUSH9 0xDDD210CD64736F6C63 NUMBER STOP ADDMOD DIV STOP CALLER "
		},
		"gasEstimates": {
			"creation": {
				"codeDepositCost": "1128200",
				"executionCost": "1174",
				"totalCost": "1129374"
			},
			"external": {
				"checkDependency(bytes32[],uint256[],address,uint256)": "infinite",
				"compareStrings(string,string)": "infinite",
				"createBlueprint(string,string,string,string,uint256)": "infinite",
				"getNamehash(string)": "infinite",
				"mint(string)": "infinite",
				"registerSystem(string)": "infinite",
				"registerTheme(string,address)": "infinite",
				"resolveNodeNamehash(string)": "infinite",
				"resolveSystemNamehash(string)": "infinite",
				"resolveThemeNamehash(string)": "infinite",
				"showQuantity(string)": "infinite",
				"updateBlueprint(string,uint256)": "infinite",
				"updateSystem(bytes,string,address)": "infinite",
				"updateTheme(string,address)": "infinite"
			}
		},
		"methodIdentifiers": {
			"checkDependency(bytes32[],uint256[],address,uint256)": "91d4522c",
			"compareStrings(string,string)": "bed34bba",
			"createBlueprint(string,string,string,string,uint256)": "a7ea4425",
			"getNamehash(string)": "9c6e820c",
			"mint(string)": "d85d3d27",
			"registerSystem(string)": "92eb4874",
			"registerTheme(string,address)": "45bb6e6b",
			"resolveNodeNamehash(string)": "a6fc0a6f",
			"resolveSystemNamehash(string)": "e7177f39",
			"resolveThemeNamehash(string)": "82a19fd9",
			"showQuantity(string)": "f7a543d7",
			"updateBlueprint(string,uint256)": "d3ac76f8",
			"updateSystem(bytes,string,address)": "f13d59c0",
			"updateTheme(string,address)": "a36b5572"
		}
	},
	"abi": [
		{
			"inputs": [],
			"stateMutability": "nonpayable",
			"type": "constructor"
		},
		{
			"anonymous": false,
			"inputs": [
				{
					"indexed": false,
					"internalType": "address",
					"name": "owner",
					"type": "address"
				},
				{
					"indexed": false,
					"internalType": "string",
					"name": "assetname",
					"type": "string"
				},
				{
					"indexed": false,
					"internalType": "uint256",
					"name": "cost",
					"type": "uint256"
				},
				{
					"indexed": false,
					"internalType": "bytes32[]",
					"name": "dependencies",
					"type": "bytes32[]"
				}
			],
			"name": "createdBluprint",
			"type": "event"
		},
		{
			"anonymous": false,
			"inputs": [
				{
					"indexed": false,
					"internalType": "address",
					"name": "blueprintOwner",
					"type": "address"
				},
				{
					"indexed": false,
					"internalType": "uint256",
					"name": "earnings",
					"type": "uint256"
				}
			],
			"name": "showEarnings",
			"type": "event"
		},
		{
			"anonymous": false,
			"inputs": [
				{
					"indexed": false,
					"internalType": "address",
					"name": "nftOwner",
					"type": "address"
				},
				{
					"indexed": false,
					"internalType": "uint256",
					"name": "holdings",
					"type": "uint256"
				}
			],
			"name": "showHoldings",
			"type": "event"
		},
		{
			"inputs": [
				{
					"internalType": "bytes32[]",
					"name": "dependencies",
					"type": "bytes32[]"
				},
				{
					"internalType": "uint256[]",
					"name": "quantities",
					"type": "uint256[]"
				},
				{
					"internalType": "address",
					"name": "sender",
					"type": "address"
				},
				{
					"internalType": "uint256",
					"name": "value",
					"type": "uint256"
				}
			],
			"name": "checkDependency",
			"outputs": [
				{
					"internalType": "bool",
					"name": "",
					"type": "bool"
				}
			],
			"stateMutability": "payable",
			"type": "function"
		},
		{
			"inputs": [
				{
					"internalType": "string",
					"name": "s1",
					"type": "string"
				},
				{
					"internalType": "string",
					"name": "s2",
					"type": "string"
				}
			],
			"name": "compareStrings",
			"outputs": [
				{
					"internalType": "bool",
					"name": "",
					"type": "bool"
				}
			],
			"stateMutability": "pure",
			"type": "function"
		},
		{
			"inputs": [
				{
					"internalType": "string",
					"name": "assetURI",
					"type": "string"
				},
				{
					"internalType": "string",
					"name": "assetname",
					"type": "string"
				},
				{
					"internalType": "string",
					"name": "imageURL",
					"type": "string"
				},
				{
					"internalType": "string",
					"name": "description",
					"type": "string"
				},
				{
					"internalType": "uint256",
					"name": "cost",
					"type": "uint256"
				}
			],
			"name": "createBlueprint",
			"outputs": [],
			"stateMutability": "payable",
			"type": "function"
		},
		{
			"inputs": [
				{
					"internalType": "string",
					"name": "name",
					"type": "string"
				}
			],
			"name": "getNamehash",
			"outputs": [
				{
					"internalType": "bytes32",
					"name": "",
					"type": "bytes32"
				}
			],
			"stateMutability": "view",
			"type": "function"
		},
		{
			"inputs": [
				{
					"internalType": "string",
					"name": "assetURI",
					"type": "string"
				}
			],
			"name": "mint",
			"outputs": [],
			"stateMutability": "payable",
			"type": "function"
		},
		{
			"inputs": [
				{
					"internalType": "string",
					"name": "name",
					"type": "string"
				}
			],
			"name": "registerSystem",
			"outputs": [],
			"stateMutability": "nonpayable",
			"type": "function"
		},
		{
			"inputs": [
				{
					"internalType": "string",
					"name": "name",
					"type": "string"
				},
				{
					"internalType": "address",
					"name": "pubAddress",
					"type": "address"
				}
			],
			"name": "registerTheme",
			"outputs": [],
			"stateMutability": "payable",
			"type": "function"
		},
		{
			"inputs": [
				{
					"internalType": "string",
					"name": "name",
					"type": "string"
				}
			],
			"name": "resolveNodeNamehash",
			"outputs": [
				{
					"components": [
						{
							"internalType": "string",
							"name": "id",
							"type": "string"
						},
						{
							"internalType": "address",
							"name": "nftcontract",
							"type": "address"
						}
					],
					"internalType": "struct Registry.NodeRecord",
					"name": "",
					"type": "tuple"
				}
			],
			"stateMutability": "view",
			"type": "function"
		},
		{
			"inputs": [
				{
					"internalType": "string",
					"name": "name",
					"type": "string"
				}
			],
			"name": "resolveSystemNamehash",
			"outputs": [
				{
					"components": [
						{
							"internalType": "address",
							"name": "locationNFTContract",
							"type": "address"
						},
						{
							"internalType": "address",
							"name": "questNFTContract",
							"type": "address"
						},
						{
							"internalType": "address",
							"name": "regionsNFTContract",
							"type": "address"
						},
						{
							"internalType": "address",
							"name": "charactersNFTContract",
							"type": "address"
						},
						{
							"internalType": "address",
							"name": "itemsNFTContract",
							"type": "address"
						},
						{
							"internalType": "address",
							"name": "loreNFTContract",
							"type": "address"
						}
					],
					"internalType": "struct Registry.SystemRecord",
					"name": "",
					"type": "tuple"
				}
			],
			"stateMutability": "view",
			"type": "function"
		},
		{
			"inputs": [
				{
					"internalType": "string",
					"name": "name",
					"type": "string"
				}
			],
			"name": "resolveThemeNamehash",
			"outputs": [
				{
					"components": [
						{
							"internalType": "address",
							"name": "publisher",
							"type": "address"
						}
					],
					"internalType": "struct Registry.ThemeRecord",
					"name": "",
					"type": "tuple"
				}
			],
			"stateMutability": "view",
			"type": "function"
		},
		{
			"inputs": [
				{
					"internalType": "string",
					"name": "assetURI",
					"type": "string"
				}
			],
			"name": "showQuantity",
			"outputs": [],
			"stateMutability": "nonpayable",
			"type": "function"
		},
		{
			"inputs": [
				{
					"internalType": "string",
					"name": "assetURI",
					"type": "string"
				},
				{
					"internalType": "uint256",
					"name": "quantity",
					"type": "uint256"
				}
			],
			"name": "updateBlueprint",
			"outputs": [],
			"stateMutability": "nonpayable",
			"type": "function"
		},
		{
			"inputs": [
				{
					"internalType": "bytes",
					"name": "name",
					"type": "bytes"
				},
				{
					"internalType": "string",
					"name": "contractType",
					"type": "string"
				},
				{
					"internalType": "address",
					"name": "contractAddress",
					"type": "address"
				}
			],
			"name": "updateSystem",
			"outputs": [],
			"stateMutability": "nonpayable",
			"type": "function"
		},
		{
			"inputs": [
				{
					"internalType": "string",
					"name": "name",
					"type": "string"
				},
				{
					"internalType": "address",
					"name": "pubAddress",
					"type": "address"
				}
			],
			"name": "updateTheme",
			"outputs": [],
			"stateMutability": "nonpayable",
			"type": "function"
		}
	]
}