{
	"data": {
		"bytecode": {
			"linkReferences": {},
			"object": "608060405234801561001057600080fd5b50611328806100206000396000f3fe6080604052600436106100c25760003560e01c8063a6fc0a6f1161007f578063d3ac76f811610059578063d3ac76f814610224578063d85d3d2714610244578063e7177f3914610257578063f13d59c0146102d257600080fd5b8063a6fc0a6f146101b7578063a7ea4425146101e4578063bed34bba1461020457600080fd5b806345bb6e6b146100c757806355e61807146100dc57806382a19fd91461010f57806391d4522c1461014757806392eb487414610177578063a36b557214610197575b600080fd5b6100da6100d5366004610fcc565b6102f2565b005b3480156100e857600080fd5b506100fc6100f7366004610f28565b6103df565b6040519081526020015b60405180910390f35b34801561011b57600080fd5b5061012f61012a366004610f28565b6103f0565b60405190516001600160a01b03168152602001610106565b34801561015357600080fd5b50610167610162366004610e56565b610438565b6040519015158152602001610106565b34801561018357600080fd5b506100da610192366004610f28565b610531565b3480156101a357600080fd5b506100da6101b2366004610fcc565b610637565b3480156101c357600080fd5b506101d76101d2366004610f28565b610673565b6040516101069190611188565b3480156101f057600080fd5b506100da6101ff366004611079565b610761565b34801561021057600080fd5b5061016761021f366004611018565b610884565b34801561023057600080fd5b506100da61023f366004611129565b6108dd565b6100da610252366004610f28565b610949565b34801561026357600080fd5b50610277610272366004610f28565b610a58565b604051610106919081516001600160a01b03908116825260208084015182169083015260408084015182169083015260608084015182169083015260808084015182169083015260a092830151169181019190915260c00190565b3480156102de57600080fd5b506100da6102ed366004610f5b565b610b04565b34670de0b6b3a76400001461035b5760405162461bcd60e51b815260206004820152602560248201527f497420636f73747320312045544820746f207075726368617365206120556e69604482015264766572736560d81b606482015260840160405180910390fd5b600061036683610b6e565b60408051808201825260058152647468656d6560d81b60208083019182526000858152908190529290922090519293506103a292909190610c8d565b5060408051602080820183526001600160a01b0394851682526000938452600390529120905181546001600160a01b031916921691909117905550565b60006103ea82610b6e565b92915050565b604080516020810190915260008152600061040a83610b6e565b600090815260036020908152604091829020825191820190925290546001600160a01b031681529392505050565b835160009081805b8281101561050f57600088828151811061046a57634e487b7160e01b600052603260045260246000fd5b60200260200101519050600088838151811061049657634e487b7160e01b600052603260045260246000fd5b6020908102919091018101516001600160a01b038a166000908152600483526040808220868352909352919091205490915081146104dc57600095505050505050610529565b6000828152600760205260409020600301546104f8908561122c565b935050508080610507906112ab565b915050610440565b5083811461052257600092505050610529565b6001925050505b949350505050565b600061053c82610b6e565b604080518082018252600681526573797374656d60d01b602080830191825260008581529081905292909220905192935061057992909190610c8d565b506040805160c08101825260008082526020808301828152838501838152606085018481526080860185815260a0870186815298865260029485905296909420945185546001600160a01b03199081166001600160a01b0392831617875592516001870180548516918316919091179055905192850180548316938216939093179092559151600384018054841691831691909117905592516004830180548316918516919091179055925160059091018054909316911617905550565b600061064283610b6e565b600090815260036020526040902080546001600160a01b0319166001600160a01b0393909316929092179091555050565b604080518082019091526060815260006020820152600061069383610b6e565b9050600160008281526020019081526020016000206040518060400160405290816000820180546106c390611270565b80601f01602080910402602001604051908101604052809291908181526020018280546106ef90611270565b801561073c5780601f106107115761010080835404028352916020019161073c565b820191906000526020600020905b81548152906001019060200180831161071f57829003601f168201915b5050509183525050600191909101546001600160a01b03166020909101529392505050565b600061076c86610b6e565b6000818152600660205260409020549091506001600160a01b031661079057600080fd5b600081815260066020908152604080832080546001600160a01b03191633179055805160c08101825288815280830188905280820187905260608181018790526080820181905260a082018190528585526007845291909320835180519294859490936108009284920190610c8d565b5060208281015180516108199260018501920190610c8d565b5060408201518051610835916002840191602090910190610c8d565b50606082015160038201556080820151805161085b916004840191602090910190610d11565b5060a08201518051610877916005840191602090910190610d11565b5050505050505050505050565b600081604051602001610897919061116c565b60405160208183030381529060405280519060200120836040516020016108be919061116c565b6040516020818303038152906040528051906020012014905092915050565b60006108e883610b6e565b6000818152600660205260409020549091506001600160a01b0316331461090e57600080fd5b600081815260076020908152604082206004810180546001818101835591855283852001949094556005018054938401815582529020015550565b600061095482610b6e565b6000818152600760209081526040918290206004018054835181840281018401909452808452939450610a1b9390918301828280156109b257602002820191906000526020600020905b81548152602001906001019080831161099e575b50505060008581526007602090815260409182902060050180548351818402810184019094528084529294509250830182828015610a0f57602002820191906000526020600020905b8154815260200190600101908083116109fb575b50505050503334610438565b610a2457600080fd5b3360009081526004602090815260408083208484529091528120805460019290610a4f90849061122c565b90915550505050565b6040805160c081018252600080825260208201819052918101829052606081018290526080810182905260a0810182905290610a9383610b6e565b600090815260026020818152604092839020835160c08101855281546001600160a01b03908116825260018301548116938201939093529281015482169383019390935260038301548116606083015260048301548116608083015260059092015490911660a08201529392505050565b6000610b0f84610b6e565b9050610b3b83604051806040016040528060088152602001673637b1b0ba34b7b760c11b815250610884565b15610b6857600081815260026020526040902080546001600160a01b0319166001600160a01b0384161790555b50505050565b60006103ea8260005b600081835111610b89575060006103ea565b6000610b958484610bf1565b9050610bb584610ba5838661122c565b610bb090600161122c565b610b77565b610bc0858584610c69565b6040805160208101939093528201526060016040516020818303038152906040528051906020012091505092915050565b6000805b8351610c01828561122c565b14158015610c4b575083610c15828561122c565b81518110610c3357634e487b7160e01b600052603260045260246000fd5b6020910101516001600160f81b031916601760f91b14155b15610c625780610c5a816112ab565b915050610bf5565b9392505050565b8251600090610c78838561122c565b1115610c8357600080fd5b5091016020012090565b828054610c9990611270565b90600052602060002090601f016020900481019282610cbb5760008555610d01565b82601f10610cd457805160ff1916838001178555610d01565b82800160010185558215610d01579182015b82811115610d01578251825591602001919060010190610ce6565b50610d0d929150610d4b565b5090565b828054828255906000526020600020908101928215610d015791602002820182811115610d01578251825591602001919060010190610ce6565b5b80821115610d0d5760008155600101610d4c565b80356001600160a01b0381168114610d7757600080fd5b919050565b600082601f830112610d8c578081fd5b81356020610da1610d9c83611208565b6111d7565b80838252828201915082860187848660051b8901011115610dc0578586fd5b855b85811015610dde57813584529284019290840190600101610dc2565b5090979650505050505050565b600082601f830112610dfb578081fd5b813567ffffffffffffffff811115610e1557610e156112dc565b610e28601f8201601f19166020016111d7565b818152846020838601011115610e3c578283fd5b816020850160208301379081016020019190915292915050565b60008060008060808587031215610e6b578384fd5b843567ffffffffffffffff80821115610e82578586fd5b818701915087601f830112610e95578586fd5b81356020610ea5610d9c83611208565b8083825282820191508286018c848660051b8901011115610ec4578a8bfd5b8a96505b84871015610ee6578035835260019690960195918301918301610ec8565b5098505088013592505080821115610efc578485fd5b50610f0987828801610d7c565b935050610f1860408601610d60565b9396929550929360600135925050565b600060208284031215610f39578081fd5b813567ffffffffffffffff811115610f4f578182fd5b61052984828501610deb565b600080600060608486031215610f6f578283fd5b833567ffffffffffffffff80821115610f86578485fd5b610f9287838801610deb565b94506020860135915080821115610fa7578384fd5b50610fb486828701610deb565b925050610fc360408501610d60565b90509250925092565b60008060408385031215610fde578182fd5b823567ffffffffffffffff811115610ff4578283fd5b61100085828601610deb565b92505061100f60208401610d60565b90509250929050565b6000806040838503121561102a578182fd5b823567ffffffffffffffff80821115611041578384fd5b61104d86838701610deb565b93506020850135915080821115611062578283fd5b5061106f85828601610deb565b9150509250929050565b600080600080600060a08688031215611090578081fd5b853567ffffffffffffffff808211156110a7578283fd5b6110b389838a01610deb565b965060208801359150808211156110c8578283fd5b6110d489838a01610deb565b955060408801359150808211156110e9578283fd5b6110f589838a01610deb565b9450606088013591508082111561110a578283fd5b5061111788828901610deb565b95989497509295608001359392505050565b6000806040838503121561113b578182fd5b823567ffffffffffffffff811115611151578283fd5b61115d85828601610deb565b95602094909401359450505050565b6000825161117e818460208701611244565b9190910192915050565b60208152600082516040602084015280518060608501526111b0816080860160208501611244565b602094909401516001600160a01b0316604084015250506080601f909201601f1916010190565b604051601f8201601f1916810167ffffffffffffffff81118282101715611200576112006112dc565b604052919050565b600067ffffffffffffffff821115611222576112226112dc565b5060051b60200190565b6000821982111561123f5761123f6112c6565b500190565b60005b8381101561125f578181015183820152602001611247565b83811115610b685750506000910152565b600181811c9082168061128457607f821691505b602082108114156112a557634e487b7160e01b600052602260045260246000fd5b50919050565b60006000198214156112bf576112bf6112c6565b5060010190565b634e487b7160e01b600052601160045260246000fd5b634e487b7160e01b600052604160045260246000fdfea26469706673582212203e66930720021772b6ff3a4b0f754a5c67076d05d300f4d885eecc516a43a42964736f6c63430008040033",
			"opcodes": "PUSH1 0x80 PUSH1 0x40 MSTORE CALLVALUE DUP1 ISZERO PUSH2 0x10 JUMPI PUSH1 0x0 DUP1 REVERT JUMPDEST POP PUSH2 0x1328 DUP1 PUSH2 0x20 PUSH1 0x0 CODECOPY PUSH1 0x0 RETURN INVALID PUSH1 0x80 PUSH1 0x40 MSTORE PUSH1 0x4 CALLDATASIZE LT PUSH2 0xC2 JUMPI PUSH1 0x0 CALLDATALOAD PUSH1 0xE0 SHR DUP1 PUSH4 0xA6FC0A6F GT PUSH2 0x7F JUMPI DUP1 PUSH4 0xD3AC76F8 GT PUSH2 0x59 JUMPI DUP1 PUSH4 0xD3AC76F8 EQ PUSH2 0x224 JUMPI DUP1 PUSH4 0xD85D3D27 EQ PUSH2 0x244 JUMPI DUP1 PUSH4 0xE7177F39 EQ PUSH2 0x257 JUMPI DUP1 PUSH4 0xF13D59C0 EQ PUSH2 0x2D2 JUMPI PUSH1 0x0 DUP1 REVERT JUMPDEST DUP1 PUSH4 0xA6FC0A6F EQ PUSH2 0x1B7 JUMPI DUP1 PUSH4 0xA7EA4425 EQ PUSH2 0x1E4 JUMPI DUP1 PUSH4 0xBED34BBA EQ PUSH2 0x204 JUMPI PUSH1 0x0 DUP1 REVERT JUMPDEST DUP1 PUSH4 0x45BB6E6B EQ PUSH2 0xC7 JUMPI DUP1 PUSH4 0x55E61807 EQ PUSH2 0xDC JUMPI DUP1 PUSH4 0x82A19FD9 EQ PUSH2 0x10F JUMPI DUP1 PUSH4 0x91D4522C EQ PUSH2 0x147 JUMPI DUP1 PUSH4 0x92EB4874 EQ PUSH2 0x177 JUMPI DUP1 PUSH4 0xA36B5572 EQ PUSH2 0x197 JUMPI JUMPDEST PUSH1 0x0 DUP1 REVERT JUMPDEST PUSH2 0xDA PUSH2 0xD5 CALLDATASIZE PUSH1 0x4 PUSH2 0xFCC JUMP JUMPDEST PUSH2 0x2F2 JUMP JUMPDEST STOP JUMPDEST CALLVALUE DUP1 ISZERO PUSH2 0xE8 JUMPI PUSH1 0x0 DUP1 REVERT JUMPDEST POP PUSH2 0xFC PUSH2 0xF7 CALLDATASIZE PUSH1 0x4 PUSH2 0xF28 JUMP JUMPDEST PUSH2 0x3DF JUMP JUMPDEST PUSH1 0x40 MLOAD SWAP1 DUP2 MSTORE PUSH1 0x20 ADD JUMPDEST PUSH1 0x40 MLOAD DUP1 SWAP2 SUB SWAP1 RETURN JUMPDEST CALLVALUE DUP1 ISZERO PUSH2 0x11B JUMPI PUSH1 0x0 DUP1 REVERT JUMPDEST POP PUSH2 0x12F PUSH2 0x12A CALLDATASIZE PUSH1 0x4 PUSH2 0xF28 JUMP JUMPDEST PUSH2 0x3F0 JUMP JUMPDEST PUSH1 0x40 MLOAD SWAP1 MLOAD PUSH1 0x1 PUSH1 0x1 PUSH1 0xA0 SHL SUB AND DUP2 MSTORE PUSH1 0x20 ADD PUSH2 0x106 JUMP JUMPDEST CALLVALUE DUP1 ISZERO PUSH2 0x153 JUMPI PUSH1 0x0 DUP1 REVERT JUMPDEST POP PUSH2 0x167 PUSH2 0x162 CALLDATASIZE PUSH1 0x4 PUSH2 0xE56 JUMP JUMPDEST PUSH2 0x438 JUMP JUMPDEST PUSH1 0x40 MLOAD SWAP1 ISZERO ISZERO DUP2 MSTORE PUSH1 0x20 ADD PUSH2 0x106 JUMP JUMPDEST CALLVALUE DUP1 ISZERO PUSH2 0x183 JUMPI PUSH1 0x0 DUP1 REVERT JUMPDEST POP PUSH2 0xDA PUSH2 0x192 CALLDATASIZE PUSH1 0x4 PUSH2 0xF28 JUMP JUMPDEST PUSH2 0x531 JUMP JUMPDEST CALLVALUE DUP1 ISZERO PUSH2 0x1A3 JUMPI PUSH1 0x0 DUP1 REVERT JUMPDEST POP PUSH2 0xDA PUSH2 0x1B2 CALLDATASIZE PUSH1 0x4 PUSH2 0xFCC JUMP JUMPDEST PUSH2 0x637 JUMP JUMPDEST CALLVALUE DUP1 ISZERO PUSH2 0x1C3 JUMPI PUSH1 0x0 DUP1 REVERT JUMPDEST POP PUSH2 0x1D7 PUSH2 0x1D2 CALLDATASIZE PUSH1 0x4 PUSH2 0xF28 JUMP JUMPDEST PUSH2 0x673 JUMP JUMPDEST PUSH1 0x40 MLOAD PUSH2 0x106 SWAP2 SWAP1 PUSH2 0x1188 JUMP JUMPDEST CALLVALUE DUP1 ISZERO PUSH2 0x1F0 JUMPI PUSH1 0x0 DUP1 REVERT JUMPDEST POP PUSH2 0xDA PUSH2 0x1FF CALLDATASIZE PUSH1 0x4 PUSH2 0x1079 JUMP JUMPDEST PUSH2 0x761 JUMP JUMPDEST CALLVALUE DUP1 ISZERO PUSH2 0x210 JUMPI PUSH1 0x0 DUP1 REVERT JUMPDEST POP PUSH2 0x167 PUSH2 0x21F CALLDATASIZE PUSH1 0x4 PUSH2 0x1018 JUMP JUMPDEST PUSH2 0x884 JUMP JUMPDEST CALLVALUE DUP1 ISZERO PUSH2 0x230 JUMPI PUSH1 0x0 DUP1 REVERT JUMPDEST POP PUSH2 0xDA PUSH2 0x23F CALLDATASIZE PUSH1 0x4 PUSH2 0x1129 JUMP JUMPDEST PUSH2 0x8DD JUMP JUMPDEST PUSH2 0xDA PUSH2 0x252 CALLDATASIZE PUSH1 0x4 PUSH2 0xF28 JUMP JUMPDEST PUSH2 0x949 JUMP JUMPDEST CALLVALUE DUP1 ISZERO PUSH2 0x263 JUMPI PUSH1 0x0 DUP1 REVERT JUMPDEST POP PUSH2 0x277 PUSH2 0x272 CALLDATASIZE PUSH1 0x4 PUSH2 0xF28 JUMP JUMPDEST PUSH2 0xA58 JUMP JUMPDEST PUSH1 0x40 MLOAD PUSH2 0x106 SWAP2 SWAP1 DUP2 MLOAD PUSH1 0x1 PUSH1 0x1 PUSH1 0xA0 SHL SUB SWAP1 DUP2 AND DUP3 MSTORE PUSH1 0x20 DUP1 DUP5 ADD MLOAD DUP3 AND SWAP1 DUP4 ADD MSTORE PUSH1 0x40 DUP1 DUP5 ADD MLOAD DUP3 AND SWAP1 DUP4 ADD MSTORE PUSH1 0x60 DUP1 DUP5 ADD MLOAD DUP3 AND SWAP1 DUP4 ADD MSTORE PUSH1 0x80 DUP1 DUP5 ADD MLOAD DUP3 AND SWAP1 DUP4 ADD MSTORE PUSH1 0xA0 SWAP3 DUP4 ADD MLOAD AND SWAP2 DUP2 ADD SWAP2 SWAP1 SWAP2 MSTORE PUSH1 0xC0 ADD SWAP1 JUMP JUMPDEST CALLVALUE DUP1 ISZERO PUSH2 0x2DE JUMPI PUSH1 0x0 DUP1 REVERT JUMPDEST POP PUSH2 0xDA PUSH2 0x2ED CALLDATASIZE PUSH1 0x4 PUSH2 0xF5B JUMP JUMPDEST PUSH2 0xB04 JUMP JUMPDEST CALLVALUE PUSH8 0xDE0B6B3A7640000 EQ PUSH2 0x35B JUMPI PUSH1 0x40 MLOAD PUSH3 0x461BCD PUSH1 0xE5 SHL DUP2 MSTORE PUSH1 0x20 PUSH1 0x4 DUP3 ADD MSTORE PUSH1 0x25 PUSH1 0x24 DUP3 ADD MSTORE PUSH32 0x497420636F73747320312045544820746F207075726368617365206120556E69 PUSH1 0x44 DUP3 ADD MSTORE PUSH5 0x7665727365 PUSH1 0xD8 SHL PUSH1 0x64 DUP3 ADD MSTORE PUSH1 0x84 ADD PUSH1 0x40 MLOAD DUP1 SWAP2 SUB SWAP1 REVERT JUMPDEST PUSH1 0x0 PUSH2 0x366 DUP4 PUSH2 0xB6E JUMP JUMPDEST PUSH1 0x40 DUP1 MLOAD DUP1 DUP3 ADD DUP3 MSTORE PUSH1 0x5 DUP2 MSTORE PUSH5 0x7468656D65 PUSH1 0xD8 SHL PUSH1 0x20 DUP1 DUP4 ADD SWAP2 DUP3 MSTORE PUSH1 0x0 DUP6 DUP2 MSTORE SWAP1 DUP2 SWAP1 MSTORE SWAP3 SWAP1 SWAP3 KECCAK256 SWAP1 MLOAD SWAP3 SWAP4 POP PUSH2 0x3A2 SWAP3 SWAP1 SWAP2 SWAP1 PUSH2 0xC8D JUMP JUMPDEST POP PUSH1 0x40 DUP1 MLOAD PUSH1 0x20 DUP1 DUP3 ADD DUP4 MSTORE PUSH1 0x1 PUSH1 0x1 PUSH1 0xA0 SHL SUB SWAP5 DUP6 AND DUP3 MSTORE PUSH1 0x0 SWAP4 DUP5 MSTORE PUSH1 0x3 SWAP1 MSTORE SWAP2 KECCAK256 SWAP1 MLOAD DUP2 SLOAD PUSH1 0x1 PUSH1 0x1 PUSH1 0xA0 SHL SUB NOT AND SWAP3 AND SWAP2 SWAP1 SWAP2 OR SWAP1 SSTORE POP JUMP JUMPDEST PUSH1 0x0 PUSH2 0x3EA DUP3 PUSH2 0xB6E JUMP JUMPDEST SWAP3 SWAP2 POP POP JUMP JUMPDEST PUSH1 0x40 DUP1 MLOAD PUSH1 0x20 DUP2 ADD SWAP1 SWAP2 MSTORE PUSH1 0x0 DUP2 MSTORE PUSH1 0x0 PUSH2 0x40A DUP4 PUSH2 0xB6E JUMP JUMPDEST PUSH1 0x0 SWAP1 DUP2 MSTORE PUSH1 0x3 PUSH1 0x20 SWAP1 DUP2 MSTORE PUSH1 0x40 SWAP2 DUP3 SWAP1 KECCAK256 DUP3 MLOAD SWAP2 DUP3 ADD SWAP1 SWAP3 MSTORE SWAP1 SLOAD PUSH1 0x1 PUSH1 0x1 PUSH1 0xA0 SHL SUB AND DUP2 MSTORE SWAP4 SWAP3 POP POP POP JUMP JUMPDEST DUP4 MLOAD PUSH1 0x0 SWAP1 DUP2 DUP1 JUMPDEST DUP3 DUP2 LT ISZERO PUSH2 0x50F JUMPI PUSH1 0x0 DUP9 DUP3 DUP2 MLOAD DUP2 LT PUSH2 0x46A JUMPI PUSH4 0x4E487B71 PUSH1 0xE0 SHL PUSH1 0x0 MSTORE PUSH1 0x32 PUSH1 0x4 MSTORE PUSH1 0x24 PUSH1 0x0 REVERT JUMPDEST PUSH1 0x20 MUL PUSH1 0x20 ADD ADD MLOAD SWAP1 POP PUSH1 0x0 DUP9 DUP4 DUP2 MLOAD DUP2 LT PUSH2 0x496 JUMPI PUSH4 0x4E487B71 PUSH1 0xE0 SHL PUSH1 0x0 MSTORE PUSH1 0x32 PUSH1 0x4 MSTORE PUSH1 0x24 PUSH1 0x0 REVERT JUMPDEST PUSH1 0x20 SWAP1 DUP2 MUL SWAP2 SWAP1 SWAP2 ADD DUP2 ADD MLOAD PUSH1 0x1 PUSH1 0x1 PUSH1 0xA0 SHL SUB DUP11 AND PUSH1 0x0 SWAP1 DUP2 MSTORE PUSH1 0x4 DUP4 MSTORE PUSH1 0x40 DUP1 DUP3 KECCAK256 DUP7 DUP4 MSTORE SWAP1 SWAP4 MSTORE SWAP2 SWAP1 SWAP2 KECCAK256 SLOAD SWAP1 SWAP2 POP DUP2 EQ PUSH2 0x4DC JUMPI PUSH1 0x0 SWAP6 POP POP POP POP POP POP PUSH2 0x529 JUMP JUMPDEST PUSH1 0x0 DUP3 DUP2 MSTORE PUSH1 0x7 PUSH1 0x20 MSTORE PUSH1 0x40 SWAP1 KECCAK256 PUSH1 0x3 ADD SLOAD PUSH2 0x4F8 SWAP1 DUP6 PUSH2 0x122C JUMP JUMPDEST SWAP4 POP POP POP DUP1 DUP1 PUSH2 0x507 SWAP1 PUSH2 0x12AB JUMP JUMPDEST SWAP2 POP POP PUSH2 0x440 JUMP JUMPDEST POP DUP4 DUP2 EQ PUSH2 0x522 JUMPI PUSH1 0x0 SWAP3 POP POP POP PUSH2 0x529 JUMP JUMPDEST PUSH1 0x1 SWAP3 POP POP POP JUMPDEST SWAP5 SWAP4 POP POP POP POP JUMP JUMPDEST PUSH1 0x0 PUSH2 0x53C DUP3 PUSH2 0xB6E JUMP JUMPDEST PUSH1 0x40 DUP1 MLOAD DUP1 DUP3 ADD DUP3 MSTORE PUSH1 0x6 DUP2 MSTORE PUSH6 0x73797374656D PUSH1 0xD0 SHL PUSH1 0x20 DUP1 DUP4 ADD SWAP2 DUP3 MSTORE PUSH1 0x0 DUP6 DUP2 MSTORE SWAP1 DUP2 SWAP1 MSTORE SWAP3 SWAP1 SWAP3 KECCAK256 SWAP1 MLOAD SWAP3 SWAP4 POP PUSH2 0x579 SWAP3 SWAP1 SWAP2 SWAP1 PUSH2 0xC8D JUMP JUMPDEST POP PUSH1 0x40 DUP1 MLOAD PUSH1 0xC0 DUP2 ADD DUP3 MSTORE PUSH1 0x0 DUP1 DUP3 MSTORE PUSH1 0x20 DUP1 DUP4 ADD DUP3 DUP2 MSTORE DUP4 DUP6 ADD DUP4 DUP2 MSTORE PUSH1 0x60 DUP6 ADD DUP5 DUP2 MSTORE PUSH1 0x80 DUP7 ADD DUP6 DUP2 MSTORE PUSH1 0xA0 DUP8 ADD DUP7 DUP2 MSTORE SWAP9 DUP7 MSTORE PUSH1 0x2 SWAP5 DUP6 SWAP1 MSTORE SWAP7 SWAP1 SWAP5 KECCAK256 SWAP5 MLOAD DUP6 SLOAD PUSH1 0x1 PUSH1 0x1 PUSH1 0xA0 SHL SUB NOT SWAP1 DUP2 AND PUSH1 0x1 PUSH1 0x1 PUSH1 0xA0 SHL SUB SWAP3 DUP4 AND OR DUP8 SSTORE SWAP3 MLOAD PUSH1 0x1 DUP8 ADD DUP1 SLOAD DUP6 AND SWAP2 DUP4 AND SWAP2 SWAP1 SWAP2 OR SWAP1 SSTORE SWAP1 MLOAD SWAP3 DUP6 ADD DUP1 SLOAD DUP4 AND SWAP4 DUP3 AND SWAP4 SWAP1 SWAP4 OR SWAP1 SWAP3 SSTORE SWAP2 MLOAD PUSH1 0x3 DUP5 ADD DUP1 SLOAD DUP5 AND SWAP2 DUP4 AND SWAP2 SWAP1 SWAP2 OR SWAP1 SSTORE SWAP3 MLOAD PUSH1 0x4 DUP4 ADD DUP1 SLOAD DUP4 AND SWAP2 DUP6 AND SWAP2 SWAP1 SWAP2 OR SWAP1 SSTORE SWAP3 MLOAD PUSH1 0x5 SWAP1 SWAP2 ADD DUP1 SLOAD SWAP1 SWAP4 AND SWAP2 AND OR SWAP1 SSTORE POP JUMP JUMPDEST PUSH1 0x0 PUSH2 0x642 DUP4 PUSH2 0xB6E JUMP JUMPDEST PUSH1 0x0 SWAP1 DUP2 MSTORE PUSH1 0x3 PUSH1 0x20 MSTORE PUSH1 0x40 SWAP1 KECCAK256 DUP1 SLOAD PUSH1 0x1 PUSH1 0x1 PUSH1 0xA0 SHL SUB NOT AND PUSH1 0x1 PUSH1 0x1 PUSH1 0xA0 SHL SUB SWAP4 SWAP1 SWAP4 AND SWAP3 SWAP1 SWAP3 OR SWAP1 SWAP2 SSTORE POP POP JUMP JUMPDEST PUSH1 0x40 DUP1 MLOAD DUP1 DUP3 ADD SWAP1 SWAP2 MSTORE PUSH1 0x60 DUP2 MSTORE PUSH1 0x0 PUSH1 0x20 DUP3 ADD MSTORE PUSH1 0x0 PUSH2 0x693 DUP4 PUSH2 0xB6E JUMP JUMPDEST SWAP1 POP PUSH1 0x1 PUSH1 0x0 DUP3 DUP2 MSTORE PUSH1 0x20 ADD SWAP1 DUP2 MSTORE PUSH1 0x20 ADD PUSH1 0x0 KECCAK256 PUSH1 0x40 MLOAD DUP1 PUSH1 0x40 ADD PUSH1 0x40 MSTORE SWAP1 DUP2 PUSH1 0x0 DUP3 ADD DUP1 SLOAD PUSH2 0x6C3 SWAP1 PUSH2 0x1270 JUMP JUMPDEST DUP1 PUSH1 0x1F ADD PUSH1 0x20 DUP1 SWAP2 DIV MUL PUSH1 0x20 ADD PUSH1 0x40 MLOAD SWAP1 DUP2 ADD PUSH1 0x40 MSTORE DUP1 SWAP3 SWAP2 SWAP1 DUP2 DUP2 MSTORE PUSH1 0x20 ADD DUP3 DUP1 SLOAD PUSH2 0x6EF SWAP1 PUSH2 0x1270 JUMP JUMPDEST DUP1 ISZERO PUSH2 0x73C JUMPI DUP1 PUSH1 0x1F LT PUSH2 0x711 JUMPI PUSH2 0x100 DUP1 DUP4 SLOAD DIV MUL DUP4 MSTORE SWAP2 PUSH1 0x20 ADD SWAP2 PUSH2 0x73C JUMP JUMPDEST DUP3 ADD SWAP2 SWAP1 PUSH1 0x0 MSTORE PUSH1 0x20 PUSH1 0x0 KECCAK256 SWAP1 JUMPDEST DUP2 SLOAD DUP2 MSTORE SWAP1 PUSH1 0x1 ADD SWAP1 PUSH1 0x20 ADD DUP1 DUP4 GT PUSH2 0x71F JUMPI DUP3 SWAP1 SUB PUSH1 0x1F AND DUP3 ADD SWAP2 JUMPDEST POP POP POP SWAP2 DUP4 MSTORE POP POP PUSH1 0x1 SWAP2 SWAP1 SWAP2 ADD SLOAD PUSH1 0x1 PUSH1 0x1 PUSH1 0xA0 SHL SUB AND PUSH1 0x20 SWAP1 SWAP2 ADD MSTORE SWAP4 SWAP3 POP POP POP JUMP JUMPDEST PUSH1 0x0 PUSH2 0x76C DUP7 PUSH2 0xB6E JUMP JUMPDEST PUSH1 0x0 DUP2 DUP2 MSTORE PUSH1 0x6 PUSH1 0x20 MSTORE PUSH1 0x40 SWAP1 KECCAK256 SLOAD SWAP1 SWAP2 POP PUSH1 0x1 PUSH1 0x1 PUSH1 0xA0 SHL SUB AND PUSH2 0x790 JUMPI PUSH1 0x0 DUP1 REVERT JUMPDEST PUSH1 0x0 DUP2 DUP2 MSTORE PUSH1 0x6 PUSH1 0x20 SWAP1 DUP2 MSTORE PUSH1 0x40 DUP1 DUP4 KECCAK256 DUP1 SLOAD PUSH1 0x1 PUSH1 0x1 PUSH1 0xA0 SHL SUB NOT AND CALLER OR SWAP1 SSTORE DUP1 MLOAD PUSH1 0xC0 DUP2 ADD DUP3 MSTORE DUP9 DUP2 MSTORE DUP1 DUP4 ADD DUP9 SWAP1 MSTORE DUP1 DUP3 ADD DUP8 SWAP1 MSTORE PUSH1 0x60 DUP2 DUP2 ADD DUP8 SWAP1 MSTORE PUSH1 0x80 DUP3 ADD DUP2 SWAP1 MSTORE PUSH1 0xA0 DUP3 ADD DUP2 SWAP1 MSTORE DUP6 DUP6 MSTORE PUSH1 0x7 DUP5 MSTORE SWAP2 SWAP1 SWAP4 KECCAK256 DUP4 MLOAD DUP1 MLOAD SWAP3 SWAP5 DUP6 SWAP5 SWAP1 SWAP4 PUSH2 0x800 SWAP3 DUP5 SWAP3 ADD SWAP1 PUSH2 0xC8D JUMP JUMPDEST POP PUSH1 0x20 DUP3 DUP2 ADD MLOAD DUP1 MLOAD PUSH2 0x819 SWAP3 PUSH1 0x1 DUP6 ADD SWAP3 ADD SWAP1 PUSH2 0xC8D JUMP JUMPDEST POP PUSH1 0x40 DUP3 ADD MLOAD DUP1 MLOAD PUSH2 0x835 SWAP2 PUSH1 0x2 DUP5 ADD SWAP2 PUSH1 0x20 SWAP1 SWAP2 ADD SWAP1 PUSH2 0xC8D JUMP JUMPDEST POP PUSH1 0x60 DUP3 ADD MLOAD PUSH1 0x3 DUP3 ADD SSTORE PUSH1 0x80 DUP3 ADD MLOAD DUP1 MLOAD PUSH2 0x85B SWAP2 PUSH1 0x4 DUP5 ADD SWAP2 PUSH1 0x20 SWAP1 SWAP2 ADD SWAP1 PUSH2 0xD11 JUMP JUMPDEST POP PUSH1 0xA0 DUP3 ADD MLOAD DUP1 MLOAD PUSH2 0x877 SWAP2 PUSH1 0x5 DUP5 ADD SWAP2 PUSH1 0x20 SWAP1 SWAP2 ADD SWAP1 PUSH2 0xD11 JUMP JUMPDEST POP POP POP POP POP POP POP POP POP POP POP JUMP JUMPDEST PUSH1 0x0 DUP2 PUSH1 0x40 MLOAD PUSH1 0x20 ADD PUSH2 0x897 SWAP2 SWAP1 PUSH2 0x116C JUMP JUMPDEST PUSH1 0x40 MLOAD PUSH1 0x20 DUP2 DUP4 SUB SUB DUP2 MSTORE SWAP1 PUSH1 0x40 MSTORE DUP1 MLOAD SWAP1 PUSH1 0x20 ADD KECCAK256 DUP4 PUSH1 0x40 MLOAD PUSH1 0x20 ADD PUSH2 0x8BE SWAP2 SWAP1 PUSH2 0x116C JUMP JUMPDEST PUSH1 0x40 MLOAD PUSH1 0x20 DUP2 DUP4 SUB SUB DUP2 MSTORE SWAP1 PUSH1 0x40 MSTORE DUP1 MLOAD SWAP1 PUSH1 0x20 ADD KECCAK256 EQ SWAP1 POP SWAP3 SWAP2 POP POP JUMP JUMPDEST PUSH1 0x0 PUSH2 0x8E8 DUP4 PUSH2 0xB6E JUMP JUMPDEST PUSH1 0x0 DUP2 DUP2 MSTORE PUSH1 0x6 PUSH1 0x20 MSTORE PUSH1 0x40 SWAP1 KECCAK256 SLOAD SWAP1 SWAP2 POP PUSH1 0x1 PUSH1 0x1 PUSH1 0xA0 SHL SUB AND CALLER EQ PUSH2 0x90E JUMPI PUSH1 0x0 DUP1 REVERT JUMPDEST PUSH1 0x0 DUP2 DUP2 MSTORE PUSH1 0x7 PUSH1 0x20 SWAP1 DUP2 MSTORE PUSH1 0x40 DUP3 KECCAK256 PUSH1 0x4 DUP2 ADD DUP1 SLOAD PUSH1 0x1 DUP2 DUP2 ADD DUP4 SSTORE SWAP2 DUP6 MSTORE DUP4 DUP6 KECCAK256 ADD SWAP5 SWAP1 SWAP5 SSTORE PUSH1 0x5 ADD DUP1 SLOAD SWAP4 DUP5 ADD DUP2 SSTORE DUP3 MSTORE SWAP1 KECCAK256 ADD SSTORE POP JUMP JUMPDEST PUSH1 0x0 PUSH2 0x954 DUP3 PUSH2 0xB6E JUMP JUMPDEST PUSH1 0x0 DUP2 DUP2 MSTORE PUSH1 0x7 PUSH1 0x20 SWAP1 DUP2 MSTORE PUSH1 0x40 SWAP2 DUP3 SWAP1 KECCAK256 PUSH1 0x4 ADD DUP1 SLOAD DUP4 MLOAD DUP2 DUP5 MUL DUP2 ADD DUP5 ADD SWAP1 SWAP5 MSTORE DUP1 DUP5 MSTORE SWAP4 SWAP5 POP PUSH2 0xA1B SWAP4 SWAP1 SWAP2 DUP4 ADD DUP3 DUP3 DUP1 ISZERO PUSH2 0x9B2 JUMPI PUSH1 0x20 MUL DUP3 ADD SWAP2 SWAP1 PUSH1 0x0 MSTORE PUSH1 0x20 PUSH1 0x0 KECCAK256 SWAP1 JUMPDEST DUP2 SLOAD DUP2 MSTORE PUSH1 0x20 ADD SWAP1 PUSH1 0x1 ADD SWAP1 DUP1 DUP4 GT PUSH2 0x99E JUMPI JUMPDEST POP POP POP PUSH1 0x0 DUP6 DUP2 MSTORE PUSH1 0x7 PUSH1 0x20 SWAP1 DUP2 MSTORE PUSH1 0x40 SWAP2 DUP3 SWAP1 KECCAK256 PUSH1 0x5 ADD DUP1 SLOAD DUP4 MLOAD DUP2 DUP5 MUL DUP2 ADD DUP5 ADD SWAP1 SWAP5 MSTORE DUP1 DUP5 MSTORE SWAP3 SWAP5 POP SWAP3 POP DUP4 ADD DUP3 DUP3 DUP1 ISZERO PUSH2 0xA0F JUMPI PUSH1 0x20 MUL DUP3 ADD SWAP2 SWAP1 PUSH1 0x0 MSTORE PUSH1 0x20 PUSH1 0x0 KECCAK256 SWAP1 JUMPDEST DUP2 SLOAD DUP2 MSTORE PUSH1 0x20 ADD SWAP1 PUSH1 0x1 ADD SWAP1 DUP1 DUP4 GT PUSH2 0x9FB JUMPI JUMPDEST POP POP POP POP POP CALLER CALLVALUE PUSH2 0x438 JUMP JUMPDEST PUSH2 0xA24 JUMPI PUSH1 0x0 DUP1 REVERT JUMPDEST CALLER PUSH1 0x0 SWAP1 DUP2 MSTORE PUSH1 0x4 PUSH1 0x20 SWAP1 DUP2 MSTORE PUSH1 0x40 DUP1 DUP4 KECCAK256 DUP5 DUP5 MSTORE SWAP1 SWAP2 MSTORE DUP2 KECCAK256 DUP1 SLOAD PUSH1 0x1 SWAP3 SWAP1 PUSH2 0xA4F SWAP1 DUP5 SWAP1 PUSH2 0x122C JUMP JUMPDEST SWAP1 SWAP2 SSTORE POP POP POP POP JUMP JUMPDEST PUSH1 0x40 DUP1 MLOAD PUSH1 0xC0 DUP2 ADD DUP3 MSTORE PUSH1 0x0 DUP1 DUP3 MSTORE PUSH1 0x20 DUP3 ADD DUP2 SWAP1 MSTORE SWAP2 DUP2 ADD DUP3 SWAP1 MSTORE PUSH1 0x60 DUP2 ADD DUP3 SWAP1 MSTORE PUSH1 0x80 DUP2 ADD DUP3 SWAP1 MSTORE PUSH1 0xA0 DUP2 ADD DUP3 SWAP1 MSTORE SWAP1 PUSH2 0xA93 DUP4 PUSH2 0xB6E JUMP JUMPDEST PUSH1 0x0 SWAP1 DUP2 MSTORE PUSH1 0x2 PUSH1 0x20 DUP2 DUP2 MSTORE PUSH1 0x40 SWAP3 DUP4 SWAP1 KECCAK256 DUP4 MLOAD PUSH1 0xC0 DUP2 ADD DUP6 MSTORE DUP2 SLOAD PUSH1 0x1 PUSH1 0x1 PUSH1 0xA0 SHL SUB SWAP1 DUP2 AND DUP3 MSTORE PUSH1 0x1 DUP4 ADD SLOAD DUP2 AND SWAP4 DUP3 ADD SWAP4 SWAP1 SWAP4 MSTORE SWAP3 DUP2 ADD SLOAD DUP3 AND SWAP4 DUP4 ADD SWAP4 SWAP1 SWAP4 MSTORE PUSH1 0x3 DUP4 ADD SLOAD DUP2 AND PUSH1 0x60 DUP4 ADD MSTORE PUSH1 0x4 DUP4 ADD SLOAD DUP2 AND PUSH1 0x80 DUP4 ADD MSTORE PUSH1 0x5 SWAP1 SWAP3 ADD SLOAD SWAP1 SWAP2 AND PUSH1 0xA0 DUP3 ADD MSTORE SWAP4 SWAP3 POP POP POP JUMP JUMPDEST PUSH1 0x0 PUSH2 0xB0F DUP5 PUSH2 0xB6E JUMP JUMPDEST SWAP1 POP PUSH2 0xB3B DUP4 PUSH1 0x40 MLOAD DUP1 PUSH1 0x40 ADD PUSH1 0x40 MSTORE DUP1 PUSH1 0x8 DUP2 MSTORE PUSH1 0x20 ADD PUSH8 0x3637B1B0BA34B7B7 PUSH1 0xC1 SHL DUP2 MSTORE POP PUSH2 0x884 JUMP JUMPDEST ISZERO PUSH2 0xB68 JUMPI PUSH1 0x0 DUP2 DUP2 MSTORE PUSH1 0x2 PUSH1 0x20 MSTORE PUSH1 0x40 SWAP1 KECCAK256 DUP1 SLOAD PUSH1 0x1 PUSH1 0x1 PUSH1 0xA0 SHL SUB NOT AND PUSH1 0x1 PUSH1 0x1 PUSH1 0xA0 SHL SUB DUP5 AND OR SWAP1 SSTORE JUMPDEST POP POP POP POP JUMP JUMPDEST PUSH1 0x0 PUSH2 0x3EA DUP3 PUSH1 0x0 JUMPDEST PUSH1 0x0 DUP2 DUP4 MLOAD GT PUSH2 0xB89 JUMPI POP PUSH1 0x0 PUSH2 0x3EA JUMP JUMPDEST PUSH1 0x0 PUSH2 0xB95 DUP5 DUP5 PUSH2 0xBF1 JUMP JUMPDEST SWAP1 POP PUSH2 0xBB5 DUP5 PUSH2 0xBA5 DUP4 DUP7 PUSH2 0x122C JUMP JUMPDEST PUSH2 0xBB0 SWAP1 PUSH1 0x1 PUSH2 0x122C JUMP JUMPDEST PUSH2 0xB77 JUMP JUMPDEST PUSH2 0xBC0 DUP6 DUP6 DUP5 PUSH2 0xC69 JUMP JUMPDEST PUSH1 0x40 DUP1 MLOAD PUSH1 0x20 DUP2 ADD SWAP4 SWAP1 SWAP4 MSTORE DUP3 ADD MSTORE PUSH1 0x60 ADD PUSH1 0x40 MLOAD PUSH1 0x20 DUP2 DUP4 SUB SUB DUP2 MSTORE SWAP1 PUSH1 0x40 MSTORE DUP1 MLOAD SWAP1 PUSH1 0x20 ADD KECCAK256 SWAP2 POP POP SWAP3 SWAP2 POP POP JUMP JUMPDEST PUSH1 0x0 DUP1 JUMPDEST DUP4 MLOAD PUSH2 0xC01 DUP3 DUP6 PUSH2 0x122C JUMP JUMPDEST EQ ISZERO DUP1 ISZERO PUSH2 0xC4B JUMPI POP DUP4 PUSH2 0xC15 DUP3 DUP6 PUSH2 0x122C JUMP JUMPDEST DUP2 MLOAD DUP2 LT PUSH2 0xC33 JUMPI PUSH4 0x4E487B71 PUSH1 0xE0 SHL PUSH1 0x0 MSTORE PUSH1 0x32 PUSH1 0x4 MSTORE PUSH1 0x24 PUSH1 0x0 REVERT JUMPDEST PUSH1 0x20 SWAP2 ADD ADD MLOAD PUSH1 0x1 PUSH1 0x1 PUSH1 0xF8 SHL SUB NOT AND PUSH1 0x17 PUSH1 0xF9 SHL EQ ISZERO JUMPDEST ISZERO PUSH2 0xC62 JUMPI DUP1 PUSH2 0xC5A DUP2 PUSH2 0x12AB JUMP JUMPDEST SWAP2 POP POP PUSH2 0xBF5 JUMP JUMPDEST SWAP4 SWAP3 POP POP POP JUMP JUMPDEST DUP3 MLOAD PUSH1 0x0 SWAP1 PUSH2 0xC78 DUP4 DUP6 PUSH2 0x122C JUMP JUMPDEST GT ISZERO PUSH2 0xC83 JUMPI PUSH1 0x0 DUP1 REVERT JUMPDEST POP SWAP2 ADD PUSH1 0x20 ADD KECCAK256 SWAP1 JUMP JUMPDEST DUP3 DUP1 SLOAD PUSH2 0xC99 SWAP1 PUSH2 0x1270 JUMP JUMPDEST SWAP1 PUSH1 0x0 MSTORE PUSH1 0x20 PUSH1 0x0 KECCAK256 SWAP1 PUSH1 0x1F ADD PUSH1 0x20 SWAP1 DIV DUP2 ADD SWAP3 DUP3 PUSH2 0xCBB JUMPI PUSH1 0x0 DUP6 SSTORE PUSH2 0xD01 JUMP JUMPDEST DUP3 PUSH1 0x1F LT PUSH2 0xCD4 JUMPI DUP1 MLOAD PUSH1 0xFF NOT AND DUP4 DUP1 ADD OR DUP6 SSTORE PUSH2 0xD01 JUMP JUMPDEST DUP3 DUP1 ADD PUSH1 0x1 ADD DUP6 SSTORE DUP3 ISZERO PUSH2 0xD01 JUMPI SWAP2 DUP3 ADD JUMPDEST DUP3 DUP2 GT ISZERO PUSH2 0xD01 JUMPI DUP3 MLOAD DUP3 SSTORE SWAP2 PUSH1 0x20 ADD SWAP2 SWAP1 PUSH1 0x1 ADD SWAP1 PUSH2 0xCE6 JUMP JUMPDEST POP PUSH2 0xD0D SWAP3 SWAP2 POP PUSH2 0xD4B JUMP JUMPDEST POP SWAP1 JUMP JUMPDEST DUP3 DUP1 SLOAD DUP3 DUP3 SSTORE SWAP1 PUSH1 0x0 MSTORE PUSH1 0x20 PUSH1 0x0 KECCAK256 SWAP1 DUP2 ADD SWAP3 DUP3 ISZERO PUSH2 0xD01 JUMPI SWAP2 PUSH1 0x20 MUL DUP3 ADD DUP3 DUP2 GT ISZERO PUSH2 0xD01 JUMPI DUP3 MLOAD DUP3 SSTORE SWAP2 PUSH1 0x20 ADD SWAP2 SWAP1 PUSH1 0x1 ADD SWAP1 PUSH2 0xCE6 JUMP JUMPDEST JUMPDEST DUP1 DUP3 GT ISZERO PUSH2 0xD0D JUMPI PUSH1 0x0 DUP2 SSTORE PUSH1 0x1 ADD PUSH2 0xD4C JUMP JUMPDEST DUP1 CALLDATALOAD PUSH1 0x1 PUSH1 0x1 PUSH1 0xA0 SHL SUB DUP2 AND DUP2 EQ PUSH2 0xD77 JUMPI PUSH1 0x0 DUP1 REVERT JUMPDEST SWAP2 SWAP1 POP JUMP JUMPDEST PUSH1 0x0 DUP3 PUSH1 0x1F DUP4 ADD SLT PUSH2 0xD8C JUMPI DUP1 DUP2 REVERT JUMPDEST DUP2 CALLDATALOAD PUSH1 0x20 PUSH2 0xDA1 PUSH2 0xD9C DUP4 PUSH2 0x1208 JUMP JUMPDEST PUSH2 0x11D7 JUMP JUMPDEST DUP1 DUP4 DUP3 MSTORE DUP3 DUP3 ADD SWAP2 POP DUP3 DUP7 ADD DUP8 DUP5 DUP7 PUSH1 0x5 SHL DUP10 ADD ADD GT ISZERO PUSH2 0xDC0 JUMPI DUP6 DUP7 REVERT JUMPDEST DUP6 JUMPDEST DUP6 DUP2 LT ISZERO PUSH2 0xDDE JUMPI DUP2 CALLDATALOAD DUP5 MSTORE SWAP3 DUP5 ADD SWAP3 SWAP1 DUP5 ADD SWAP1 PUSH1 0x1 ADD PUSH2 0xDC2 JUMP JUMPDEST POP SWAP1 SWAP8 SWAP7 POP POP POP POP POP POP POP JUMP JUMPDEST PUSH1 0x0 DUP3 PUSH1 0x1F DUP4 ADD SLT PUSH2 0xDFB JUMPI DUP1 DUP2 REVERT JUMPDEST DUP2 CALLDATALOAD PUSH8 0xFFFFFFFFFFFFFFFF DUP2 GT ISZERO PUSH2 0xE15 JUMPI PUSH2 0xE15 PUSH2 0x12DC JUMP JUMPDEST PUSH2 0xE28 PUSH1 0x1F DUP3 ADD PUSH1 0x1F NOT AND PUSH1 0x20 ADD PUSH2 0x11D7 JUMP JUMPDEST DUP2 DUP2 MSTORE DUP5 PUSH1 0x20 DUP4 DUP7 ADD ADD GT ISZERO PUSH2 0xE3C JUMPI DUP3 DUP4 REVERT JUMPDEST DUP2 PUSH1 0x20 DUP6 ADD PUSH1 0x20 DUP4 ADD CALLDATACOPY SWAP1 DUP2 ADD PUSH1 0x20 ADD SWAP2 SWAP1 SWAP2 MSTORE SWAP3 SWAP2 POP POP JUMP JUMPDEST PUSH1 0x0 DUP1 PUSH1 0x0 DUP1 PUSH1 0x80 DUP6 DUP8 SUB SLT ISZERO PUSH2 0xE6B JUMPI DUP4 DUP5 REVERT JUMPDEST DUP5 CALLDATALOAD PUSH8 0xFFFFFFFFFFFFFFFF DUP1 DUP3 GT ISZERO PUSH2 0xE82 JUMPI DUP6 DUP7 REVERT JUMPDEST DUP2 DUP8 ADD SWAP2 POP DUP8 PUSH1 0x1F DUP4 ADD SLT PUSH2 0xE95 JUMPI DUP6 DUP7 REVERT JUMPDEST DUP2 CALLDATALOAD PUSH1 0x20 PUSH2 0xEA5 PUSH2 0xD9C DUP4 PUSH2 0x1208 JUMP JUMPDEST DUP1 DUP4 DUP3 MSTORE DUP3 DUP3 ADD SWAP2 POP DUP3 DUP7 ADD DUP13 DUP5 DUP7 PUSH1 0x5 SHL DUP10 ADD ADD GT ISZERO PUSH2 0xEC4 JUMPI DUP11 DUP12 REVERT JUMPDEST DUP11 SWAP7 POP JUMPDEST DUP5 DUP8 LT ISZERO PUSH2 0xEE6 JUMPI DUP1 CALLDATALOAD DUP4 MSTORE PUSH1 0x1 SWAP7 SWAP1 SWAP7 ADD SWAP6 SWAP2 DUP4 ADD SWAP2 DUP4 ADD PUSH2 0xEC8 JUMP JUMPDEST POP SWAP9 POP POP DUP9 ADD CALLDATALOAD SWAP3 POP POP DUP1 DUP3 GT ISZERO PUSH2 0xEFC JUMPI DUP5 DUP6 REVERT JUMPDEST POP PUSH2 0xF09 DUP8 DUP3 DUP9 ADD PUSH2 0xD7C JUMP JUMPDEST SWAP4 POP POP PUSH2 0xF18 PUSH1 0x40 DUP7 ADD PUSH2 0xD60 JUMP JUMPDEST SWAP4 SWAP7 SWAP3 SWAP6 POP SWAP3 SWAP4 PUSH1 0x60 ADD CALLDATALOAD SWAP3 POP POP JUMP JUMPDEST PUSH1 0x0 PUSH1 0x20 DUP3 DUP5 SUB SLT ISZERO PUSH2 0xF39 JUMPI DUP1 DUP2 REVERT JUMPDEST DUP2 CALLDATALOAD PUSH8 0xFFFFFFFFFFFFFFFF DUP2 GT ISZERO PUSH2 0xF4F JUMPI DUP2 DUP3 REVERT JUMPDEST PUSH2 0x529 DUP5 DUP3 DUP6 ADD PUSH2 0xDEB JUMP JUMPDEST PUSH1 0x0 DUP1 PUSH1 0x0 PUSH1 0x60 DUP5 DUP7 SUB SLT ISZERO PUSH2 0xF6F JUMPI DUP3 DUP4 REVERT JUMPDEST DUP4 CALLDATALOAD PUSH8 0xFFFFFFFFFFFFFFFF DUP1 DUP3 GT ISZERO PUSH2 0xF86 JUMPI DUP5 DUP6 REVERT JUMPDEST PUSH2 0xF92 DUP8 DUP4 DUP9 ADD PUSH2 0xDEB JUMP JUMPDEST SWAP5 POP PUSH1 0x20 DUP7 ADD CALLDATALOAD SWAP2 POP DUP1 DUP3 GT ISZERO PUSH2 0xFA7 JUMPI DUP4 DUP5 REVERT JUMPDEST POP PUSH2 0xFB4 DUP7 DUP3 DUP8 ADD PUSH2 0xDEB JUMP JUMPDEST SWAP3 POP POP PUSH2 0xFC3 PUSH1 0x40 DUP6 ADD PUSH2 0xD60 JUMP JUMPDEST SWAP1 POP SWAP3 POP SWAP3 POP SWAP3 JUMP JUMPDEST PUSH1 0x0 DUP1 PUSH1 0x40 DUP4 DUP6 SUB SLT ISZERO PUSH2 0xFDE JUMPI DUP2 DUP3 REVERT JUMPDEST DUP3 CALLDATALOAD PUSH8 0xFFFFFFFFFFFFFFFF DUP2 GT ISZERO PUSH2 0xFF4 JUMPI DUP3 DUP4 REVERT JUMPDEST PUSH2 0x1000 DUP6 DUP3 DUP7 ADD PUSH2 0xDEB JUMP JUMPDEST SWAP3 POP POP PUSH2 0x100F PUSH1 0x20 DUP5 ADD PUSH2 0xD60 JUMP JUMPDEST SWAP1 POP SWAP3 POP SWAP3 SWAP1 POP JUMP JUMPDEST PUSH1 0x0 DUP1 PUSH1 0x40 DUP4 DUP6 SUB SLT ISZERO PUSH2 0x102A JUMPI DUP2 DUP3 REVERT JUMPDEST DUP3 CALLDATALOAD PUSH8 0xFFFFFFFFFFFFFFFF DUP1 DUP3 GT ISZERO PUSH2 0x1041 JUMPI DUP4 DUP5 REVERT JUMPDEST PUSH2 0x104D DUP7 DUP4 DUP8 ADD PUSH2 0xDEB JUMP JUMPDEST SWAP4 POP PUSH1 0x20 DUP6 ADD CALLDATALOAD SWAP2 POP DUP1 DUP3 GT ISZERO PUSH2 0x1062 JUMPI DUP3 DUP4 REVERT JUMPDEST POP PUSH2 0x106F DUP6 DUP3 DUP7 ADD PUSH2 0xDEB JUMP JUMPDEST SWAP2 POP POP SWAP3 POP SWAP3 SWAP1 POP JUMP JUMPDEST PUSH1 0x0 DUP1 PUSH1 0x0 DUP1 PUSH1 0x0 PUSH1 0xA0 DUP7 DUP9 SUB SLT ISZERO PUSH2 0x1090 JUMPI DUP1 DUP2 REVERT JUMPDEST DUP6 CALLDATALOAD PUSH8 0xFFFFFFFFFFFFFFFF DUP1 DUP3 GT ISZERO PUSH2 0x10A7 JUMPI DUP3 DUP4 REVERT JUMPDEST PUSH2 0x10B3 DUP10 DUP4 DUP11 ADD PUSH2 0xDEB JUMP JUMPDEST SWAP7 POP PUSH1 0x20 DUP9 ADD CALLDATALOAD SWAP2 POP DUP1 DUP3 GT ISZERO PUSH2 0x10C8 JUMPI DUP3 DUP4 REVERT JUMPDEST PUSH2 0x10D4 DUP10 DUP4 DUP11 ADD PUSH2 0xDEB JUMP JUMPDEST SWAP6 POP PUSH1 0x40 DUP9 ADD CALLDATALOAD SWAP2 POP DUP1 DUP3 GT ISZERO PUSH2 0x10E9 JUMPI DUP3 DUP4 REVERT JUMPDEST PUSH2 0x10F5 DUP10 DUP4 DUP11 ADD PUSH2 0xDEB JUMP JUMPDEST SWAP5 POP PUSH1 0x60 DUP9 ADD CALLDATALOAD SWAP2 POP DUP1 DUP3 GT ISZERO PUSH2 0x110A JUMPI DUP3 DUP4 REVERT JUMPDEST POP PUSH2 0x1117 DUP9 DUP3 DUP10 ADD PUSH2 0xDEB JUMP JUMPDEST SWAP6 SWAP9 SWAP5 SWAP8 POP SWAP3 SWAP6 PUSH1 0x80 ADD CALLDATALOAD SWAP4 SWAP3 POP POP POP JUMP JUMPDEST PUSH1 0x0 DUP1 PUSH1 0x40 DUP4 DUP6 SUB SLT ISZERO PUSH2 0x113B JUMPI DUP2 DUP3 REVERT JUMPDEST DUP3 CALLDATALOAD PUSH8 0xFFFFFFFFFFFFFFFF DUP2 GT ISZERO PUSH2 0x1151 JUMPI DUP3 DUP4 REVERT JUMPDEST PUSH2 0x115D DUP6 DUP3 DUP7 ADD PUSH2 0xDEB JUMP JUMPDEST SWAP6 PUSH1 0x20 SWAP5 SWAP1 SWAP5 ADD CALLDATALOAD SWAP5 POP POP POP POP JUMP JUMPDEST PUSH1 0x0 DUP3 MLOAD PUSH2 0x117E DUP2 DUP5 PUSH1 0x20 DUP8 ADD PUSH2 0x1244 JUMP JUMPDEST SWAP2 SWAP1 SWAP2 ADD SWAP3 SWAP2 POP POP JUMP JUMPDEST PUSH1 0x20 DUP2 MSTORE PUSH1 0x0 DUP3 MLOAD PUSH1 0x40 PUSH1 0x20 DUP5 ADD MSTORE DUP1 MLOAD DUP1 PUSH1 0x60 DUP6 ADD MSTORE PUSH2 0x11B0 DUP2 PUSH1 0x80 DUP7 ADD PUSH1 0x20 DUP6 ADD PUSH2 0x1244 JUMP JUMPDEST PUSH1 0x20 SWAP5 SWAP1 SWAP5 ADD MLOAD PUSH1 0x1 PUSH1 0x1 PUSH1 0xA0 SHL SUB AND PUSH1 0x40 DUP5 ADD MSTORE POP POP PUSH1 0x80 PUSH1 0x1F SWAP1 SWAP3 ADD PUSH1 0x1F NOT AND ADD ADD SWAP1 JUMP JUMPDEST PUSH1 0x40 MLOAD PUSH1 0x1F DUP3 ADD PUSH1 0x1F NOT AND DUP2 ADD PUSH8 0xFFFFFFFFFFFFFFFF DUP2 GT DUP3 DUP3 LT OR ISZERO PUSH2 0x1200 JUMPI PUSH2 0x1200 PUSH2 0x12DC JUMP JUMPDEST PUSH1 0x40 MSTORE SWAP2 SWAP1 POP JUMP JUMPDEST PUSH1 0x0 PUSH8 0xFFFFFFFFFFFFFFFF DUP3 GT ISZERO PUSH2 0x1222 JUMPI PUSH2 0x1222 PUSH2 0x12DC JUMP JUMPDEST POP PUSH1 0x5 SHL PUSH1 0x20 ADD SWAP1 JUMP JUMPDEST PUSH1 0x0 DUP3 NOT DUP3 GT ISZERO PUSH2 0x123F JUMPI PUSH2 0x123F PUSH2 0x12C6 JUMP JUMPDEST POP ADD SWAP1 JUMP JUMPDEST PUSH1 0x0 JUMPDEST DUP4 DUP2 LT ISZERO PUSH2 0x125F JUMPI DUP2 DUP2 ADD MLOAD DUP4 DUP3 ADD MSTORE PUSH1 0x20 ADD PUSH2 0x1247 JUMP JUMPDEST DUP4 DUP2 GT ISZERO PUSH2 0xB68 JUMPI POP POP PUSH1 0x0 SWAP2 ADD MSTORE JUMP JUMPDEST PUSH1 0x1 DUP2 DUP2 SHR SWAP1 DUP3 AND DUP1 PUSH2 0x1284 JUMPI PUSH1 0x7F DUP3 AND SWAP2 POP JUMPDEST PUSH1 0x20 DUP3 LT DUP2 EQ ISZERO PUSH2 0x12A5 JUMPI PUSH4 0x4E487B71 PUSH1 0xE0 SHL PUSH1 0x0 MSTORE PUSH1 0x22 PUSH1 0x4 MSTORE PUSH1 0x24 PUSH1 0x0 REVERT JUMPDEST POP SWAP2 SWAP1 POP JUMP JUMPDEST PUSH1 0x0 PUSH1 0x0 NOT DUP3 EQ ISZERO PUSH2 0x12BF JUMPI PUSH2 0x12BF PUSH2 0x12C6 JUMP JUMPDEST POP PUSH1 0x1 ADD SWAP1 JUMP JUMPDEST PUSH4 0x4E487B71 PUSH1 0xE0 SHL PUSH1 0x0 MSTORE PUSH1 0x11 PUSH1 0x4 MSTORE PUSH1 0x24 PUSH1 0x0 REVERT JUMPDEST PUSH4 0x4E487B71 PUSH1 0xE0 SHL PUSH1 0x0 MSTORE PUSH1 0x41 PUSH1 0x4 MSTORE PUSH1 0x24 PUSH1 0x0 REVERT INVALID LOG2 PUSH5 0x6970667358 0x22 SLT KECCAK256 RETURNDATACOPY PUSH7 0x930720021772B6 SELFDESTRUCT GASPRICE 0x4B 0xF PUSH22 0x4A5C67076D05D300F4D885EECC516A43A42964736F6C PUSH4 0x43000804 STOP CALLER "
		},
		"gasEstimates": {
			"creation": {
				"codeDepositCost": "980800",
				"executionCost": "1021",
				"totalCost": "981821"
			},
			"external": {
				"checkDependency(bytes32[],uint256[],address,uint256)": "infinite",
				"compareStrings(string,string)": "infinite",
				"createBlueprint(string,string,string,string,uint256)": "infinite",
				"getNamehash(bytes)": "infinite",
				"mint(string)": "infinite",
				"registerSystem(string)": "infinite",
				"registerTheme(string,address)": "infinite",
				"resolveNodeNamehash(string)": "infinite",
				"resolveSystemNamehash(string)": "infinite",
				"resolveThemeNamehash(string)": "infinite",
				"updateBlueprint(string,uint256)": "infinite",
				"updateSystem(bytes,string,address)": "infinite",
				"updateTheme(string,address)": "infinite"
			}
		},
		"methodIdentifiers": {
			"checkDependency(bytes32[],uint256[],address,uint256)": "91d4522c",
			"compareStrings(string,string)": "bed34bba",
			"createBlueprint(string,string,string,string,uint256)": "a7ea4425",
			"getNamehash(bytes)": "55e61807",
			"mint(string)": "d85d3d27",
			"registerSystem(string)": "92eb4874",
			"registerTheme(string,address)": "45bb6e6b",
			"resolveNodeNamehash(string)": "a6fc0a6f",
			"resolveSystemNamehash(string)": "e7177f39",
			"resolveThemeNamehash(string)": "82a19fd9",
			"updateBlueprint(string,uint256)": "d3ac76f8",
			"updateSystem(bytes,string,address)": "f13d59c0",
			"updateTheme(string,address)": "a36b5572"
		}
	},
	"abi": [
		{
			"inputs": [],
			"stateMutability": "nonpayable",
			"type": "constructor"
		},
		{
			"inputs": [
				{
					"internalType": "bytes32[]",
					"name": "dependencies",
					"type": "bytes32[]"
				},
				{
					"internalType": "uint256[]",
					"name": "quantities",
					"type": "uint256[]"
				},
				{
					"internalType": "address",
					"name": "sender",
					"type": "address"
				},
				{
					"internalType": "uint256",
					"name": "value",
					"type": "uint256"
				}
			],
			"name": "checkDependency",
			"outputs": [
				{
					"internalType": "bool",
					"name": "",
					"type": "bool"
				}
			],
			"stateMutability": "view",
			"type": "function"
		},
		{
			"inputs": [
				{
					"internalType": "string",
					"name": "s1",
					"type": "string"
				},
				{
					"internalType": "string",
					"name": "s2",
					"type": "string"
				}
			],
			"name": "compareStrings",
			"outputs": [
				{
					"internalType": "bool",
					"name": "",
					"type": "bool"
				}
			],
			"stateMutability": "pure",
			"type": "function"
		},
		{
			"inputs": [
				{
					"internalType": "string",
					"name": "assetURI",
					"type": "string"
				},
				{
					"internalType": "string",
					"name": "assetname",
					"type": "string"
				},
				{
					"internalType": "string",
					"name": "imageURL",
					"type": "string"
				},
				{
					"internalType": "string",
					"name": "description",
					"type": "string"
				},
				{
					"internalType": "uint256",
					"name": "cost",
					"type": "uint256"
				}
			],
			"name": "createBlueprint",
			"outputs": [],
			"stateMutability": "nonpayable",
			"type": "function"
		},
		{
			"inputs": [
				{
					"internalType": "bytes",
					"name": "name",
					"type": "bytes"
				}
			],
			"name": "getNamehash",
			"outputs": [
				{
					"internalType": "bytes32",
					"name": "",
					"type": "bytes32"
				}
			],
			"stateMutability": "view",
			"type": "function"
		},
		{
			"inputs": [
				{
					"internalType": "string",
					"name": "assetURI",
					"type": "string"
				}
			],
			"name": "mint",
			"outputs": [],
			"stateMutability": "payable",
			"type": "function"
		},
		{
			"inputs": [
				{
					"internalType": "string",
					"name": "name",
					"type": "string"
				}
			],
			"name": "registerSystem",
			"outputs": [],
			"stateMutability": "nonpayable",
			"type": "function"
		},
		{
			"inputs": [
				{
					"internalType": "string",
					"name": "name",
					"type": "string"
				},
				{
					"internalType": "address",
					"name": "pubAddress",
					"type": "address"
				}
			],
			"name": "registerTheme",
			"outputs": [],
			"stateMutability": "payable",
			"type": "function"
		},
		{
			"inputs": [
				{
					"internalType": "string",
					"name": "name",
					"type": "string"
				}
			],
			"name": "resolveNodeNamehash",
			"outputs": [
				{
					"components": [
						{
							"internalType": "string",
							"name": "id",
							"type": "string"
						},
						{
							"internalType": "address",
							"name": "nftcontract",
							"type": "address"
						}
					],
					"internalType": "struct Registry.NodeRecord",
					"name": "",
					"type": "tuple"
				}
			],
			"stateMutability": "view",
			"type": "function"
		},
		{
			"inputs": [
				{
					"internalType": "string",
					"name": "name",
					"type": "string"
				}
			],
			"name": "resolveSystemNamehash",
			"outputs": [
				{
					"components": [
						{
							"internalType": "address",
							"name": "locationNFTContract",
							"type": "address"
						},
						{
							"internalType": "address",
							"name": "questNFTContract",
							"type": "address"
						},
						{
							"internalType": "address",
							"name": "regionsNFTContract",
							"type": "address"
						},
						{
							"internalType": "address",
							"name": "charactersNFTContract",
							"type": "address"
						},
						{
							"internalType": "address",
							"name": "itemsNFTContract",
							"type": "address"
						},
						{
							"internalType": "address",
							"name": "loreNFTContract",
							"type": "address"
						}
					],
					"internalType": "struct Registry.SystemRecord",
					"name": "",
					"type": "tuple"
				}
			],
			"stateMutability": "view",
			"type": "function"
		},
		{
			"inputs": [
				{
					"internalType": "string",
					"name": "name",
					"type": "string"
				}
			],
			"name": "resolveThemeNamehash",
			"outputs": [
				{
					"components": [
						{
							"internalType": "address",
							"name": "publisher",
							"type": "address"
						}
					],
					"internalType": "struct Registry.ThemeRecord",
					"name": "",
					"type": "tuple"
				}
			],
			"stateMutability": "view",
			"type": "function"
		},
		{
			"inputs": [
				{
					"internalType": "string",
					"name": "assetURI",
					"type": "string"
				},
				{
					"internalType": "uint256",
					"name": "quantity",
					"type": "uint256"
				}
			],
			"name": "updateBlueprint",
			"outputs": [],
			"stateMutability": "nonpayable",
			"type": "function"
		},
		{
			"inputs": [
				{
					"internalType": "bytes",
					"name": "name",
					"type": "bytes"
				},
				{
					"internalType": "string",
					"name": "contractType",
					"type": "string"
				},
				{
					"internalType": "address",
					"name": "contractAddress",
					"type": "address"
				}
			],
			"name": "updateSystem",
			"outputs": [],
			"stateMutability": "nonpayable",
			"type": "function"
		},
		{
			"inputs": [
				{
					"internalType": "string",
					"name": "name",
					"type": "string"
				},
				{
					"internalType": "address",
					"name": "pubAddress",
					"type": "address"
				}
			],
			"name": "updateTheme",
			"outputs": [],
			"stateMutability": "nonpayable",
			"type": "function"
		}
	]
}