{
	"data": {
		"bytecode": {
			"linkReferences": {},
			"object": "608060405234801561001057600080fd5b5060008080526020527fad3228b676f7d3cd4284a5443f17f1962b36e491b30a40b2405849e597ba5fb580546001600160a01b031916331790556109ad806100596000396000f3fe608060405234801561001057600080fd5b50600436106100b45760003560e01c80635b0fc9c3116100715780635b0fc9c3146101ab5780635ef2c7f0146101be578063a22cb465146101d1578063cf408823146101e4578063e985e9c5146101f7578063f79fe5381461024357600080fd5b80630178b8bf146100b957806302571be31461010257806306ab59231461011557806314ab90381461013657806316a25cbd1461014b5780631896f70a14610198575b600080fd5b6100e56100c7366004610845565b6000908152602081905260409020600101546001600160a01b031690565b6040516001600160a01b0390911681526020015b60405180910390f35b6100e5610110366004610845565b61026e565b6101286101233660046108cb565b61029d565b6040519081526020016100f9565b610149610144366004610955565b61036d565b005b61017f610159366004610845565b600090815260208190526040902060010154600160a01b900467ffffffffffffffff1690565b60405167ffffffffffffffff90911681526020016100f9565b6101496101a636600461085d565b610440565b6101496101b936600461085d565b610505565b6101496101cc3660046108ff565b6105a7565b6101496101df36600461080b565b6105c9565b6101496101f236600461087f565b610635565b6102336102053660046107d9565b6001600160a01b03918216600090815260016020908152604080832093909416825291909152205460ff1690565b60405190151581526020016100f9565b610233610251366004610845565b6000908152602081905260409020546001600160a01b0316151590565b6000818152602081905260408120546001600160a01b0316308114156102975750600092915050565b92915050565b60008381526020819052604081205484906001600160a01b0316338114806102e857506001600160a01b038116600090815260016020908152604080832033845290915290205460ff165b6102f157600080fd5b604080516020808201899052818301889052825180830384018152606090920190925280519101206103238186610650565b6040516001600160a01b0386168152869088907fce0457fe73731f824cc272376169235128c118b49d344817417c6d108d155e829060200160405180910390a39695505050505050565b60008281526020819052604090205482906001600160a01b0316338114806103b857506001600160a01b038116600090815260016020908152604080832033845290915290205460ff165b6103c157600080fd5b60405167ffffffffffffffff8416815284907f1d4f9bbfc9cab89d66e1a1562f2233ccbf1308cb4f63de2ead5787adddb8fa689060200160405180910390a25050600091825260208290526040909120600101805467ffffffffffffffff909216600160a01b0267ffffffffffffffff60a01b19909216919091179055565b60008281526020819052604090205482906001600160a01b03163381148061048b57506001600160a01b038116600090815260016020908152604080832033845290915290205460ff165b61049457600080fd5b6040516001600160a01b038416815284907f335721b01866dc23fbee8b6b2c7b1e14d6f05c28cd35a2c934239f94095602a09060200160405180910390a2505060009182526020829052604090912060010180546001600160a01b0319166001600160a01b03909216919091179055565b60008281526020819052604090205482906001600160a01b03163381148061055057506001600160a01b038116600090815260016020908152604080832033845290915290205460ff165b61055957600080fd5b6105638484610650565b6040516001600160a01b038416815284907fd4735d920b0f87494915f556dd9b54c8f309026070caea5c737245152564d2669060200160405180910390a250505050565b60006105b486868661029d565b90506105c181848461067e565b505050505050565b3360008181526001602090815260408083206001600160a01b03871680855290835292819020805460ff191686151590811790915590519081529192917f17307eab39ab6107e8899845ad3d59bd9653f200f220920489ca2b5937696c31910160405180910390a35050565b61063f8484610505565b61064a84838361067e565b50505050565b60009182526020829052604090912080546001600160a01b0319166001600160a01b03909216919091179055565b6000838152602081905260409020600101546001600160a01b03838116911614610704576000838152602081815260409182902060010180546001600160a01b0319166001600160a01b038616908117909155915191825284917f335721b01866dc23fbee8b6b2c7b1e14d6f05c28cd35a2c934239f94095602a0910160405180910390a25b60008381526020819052604090206001015467ffffffffffffffff828116600160a01b90920416146107a05760008381526020818152604091829020600101805467ffffffffffffffff60a01b1916600160a01b67ffffffffffffffff861690810291909117909155915191825284917f1d4f9bbfc9cab89d66e1a1562f2233ccbf1308cb4f63de2ead5787adddb8fa68910160405180910390a25b505050565b80356001600160a01b03811681146107bc57600080fd5b919050565b803567ffffffffffffffff811681146107bc57600080fd5b600080604083850312156107eb578182fd5b6107f4836107a5565b9150610802602084016107a5565b90509250929050565b6000806040838503121561081d578182fd5b610826836107a5565b91506020830135801515811461083a578182fd5b809150509250929050565b600060208284031215610856578081fd5b5035919050565b6000806040838503121561086f578182fd5b82359150610802602084016107a5565b60008060008060808587031215610894578182fd5b843593506108a4602086016107a5565b92506108b2604086016107a5565b91506108c0606086016107c1565b905092959194509250565b6000806000606084860312156108df578283fd5b83359250602084013591506108f6604085016107a5565b90509250925092565b600080600080600060a08688031215610916578081fd5b853594506020860135935061092d604087016107a5565b925061093b606087016107a5565b9150610949608087016107c1565b90509295509295909350565b60008060408385031215610967578182fd5b82359150610802602084016107c156fea2646970667358221220d09b2696edfa6dfe0a75aab86c3917cba026a9621d33aaa1248718392a76ac5164736f6c63430008040033",
			"opcodes": "PUSH1 0x80 PUSH1 0x40 MSTORE CALLVALUE DUP1 ISZERO PUSH2 0x10 JUMPI PUSH1 0x0 DUP1 REVERT JUMPDEST POP PUSH1 0x0 DUP1 DUP1 MSTORE PUSH1 0x20 MSTORE PUSH32 0xAD3228B676F7D3CD4284A5443F17F1962B36E491B30A40B2405849E597BA5FB5 DUP1 SLOAD PUSH1 0x1 PUSH1 0x1 PUSH1 0xA0 SHL SUB NOT AND CALLER OR SWAP1 SSTORE PUSH2 0x9AD DUP1 PUSH2 0x59 PUSH1 0x0 CODECOPY PUSH1 0x0 RETURN INVALID PUSH1 0x80 PUSH1 0x40 MSTORE CALLVALUE DUP1 ISZERO PUSH2 0x10 JUMPI PUSH1 0x0 DUP1 REVERT JUMPDEST POP PUSH1 0x4 CALLDATASIZE LT PUSH2 0xB4 JUMPI PUSH1 0x0 CALLDATALOAD PUSH1 0xE0 SHR DUP1 PUSH4 0x5B0FC9C3 GT PUSH2 0x71 JUMPI DUP1 PUSH4 0x5B0FC9C3 EQ PUSH2 0x1AB JUMPI DUP1 PUSH4 0x5EF2C7F0 EQ PUSH2 0x1BE JUMPI DUP1 PUSH4 0xA22CB465 EQ PUSH2 0x1D1 JUMPI DUP1 PUSH4 0xCF408823 EQ PUSH2 0x1E4 JUMPI DUP1 PUSH4 0xE985E9C5 EQ PUSH2 0x1F7 JUMPI DUP1 PUSH4 0xF79FE538 EQ PUSH2 0x243 JUMPI PUSH1 0x0 DUP1 REVERT JUMPDEST DUP1 PUSH4 0x178B8BF EQ PUSH2 0xB9 JUMPI DUP1 PUSH4 0x2571BE3 EQ PUSH2 0x102 JUMPI DUP1 PUSH4 0x6AB5923 EQ PUSH2 0x115 JUMPI DUP1 PUSH4 0x14AB9038 EQ PUSH2 0x136 JUMPI DUP1 PUSH4 0x16A25CBD EQ PUSH2 0x14B JUMPI DUP1 PUSH4 0x1896F70A EQ PUSH2 0x198 JUMPI JUMPDEST PUSH1 0x0 DUP1 REVERT JUMPDEST PUSH2 0xE5 PUSH2 0xC7 CALLDATASIZE PUSH1 0x4 PUSH2 0x845 JUMP JUMPDEST PUSH1 0x0 SWAP1 DUP2 MSTORE PUSH1 0x20 DUP2 SWAP1 MSTORE PUSH1 0x40 SWAP1 KECCAK256 PUSH1 0x1 ADD SLOAD PUSH1 0x1 PUSH1 0x1 PUSH1 0xA0 SHL SUB AND SWAP1 JUMP JUMPDEST PUSH1 0x40 MLOAD PUSH1 0x1 PUSH1 0x1 PUSH1 0xA0 SHL SUB SWAP1 SWAP2 AND DUP2 MSTORE PUSH1 0x20 ADD JUMPDEST PUSH1 0x40 MLOAD DUP1 SWAP2 SUB SWAP1 RETURN JUMPDEST PUSH2 0xE5 PUSH2 0x110 CALLDATASIZE PUSH1 0x4 PUSH2 0x845 JUMP JUMPDEST PUSH2 0x26E JUMP JUMPDEST PUSH2 0x128 PUSH2 0x123 CALLDATASIZE PUSH1 0x4 PUSH2 0x8CB JUMP JUMPDEST PUSH2 0x29D JUMP JUMPDEST PUSH1 0x40 MLOAD SWAP1 DUP2 MSTORE PUSH1 0x20 ADD PUSH2 0xF9 JUMP JUMPDEST PUSH2 0x149 PUSH2 0x144 CALLDATASIZE PUSH1 0x4 PUSH2 0x955 JUMP JUMPDEST PUSH2 0x36D JUMP JUMPDEST STOP JUMPDEST PUSH2 0x17F PUSH2 0x159 CALLDATASIZE PUSH1 0x4 PUSH2 0x845 JUMP JUMPDEST PUSH1 0x0 SWAP1 DUP2 MSTORE PUSH1 0x20 DUP2 SWAP1 MSTORE PUSH1 0x40 SWAP1 KECCAK256 PUSH1 0x1 ADD SLOAD PUSH1 0x1 PUSH1 0xA0 SHL SWAP1 DIV PUSH8 0xFFFFFFFFFFFFFFFF AND SWAP1 JUMP JUMPDEST PUSH1 0x40 MLOAD PUSH8 0xFFFFFFFFFFFFFFFF SWAP1 SWAP2 AND DUP2 MSTORE PUSH1 0x20 ADD PUSH2 0xF9 JUMP JUMPDEST PUSH2 0x149 PUSH2 0x1A6 CALLDATASIZE PUSH1 0x4 PUSH2 0x85D JUMP JUMPDEST PUSH2 0x440 JUMP JUMPDEST PUSH2 0x149 PUSH2 0x1B9 CALLDATASIZE PUSH1 0x4 PUSH2 0x85D JUMP JUMPDEST PUSH2 0x505 JUMP JUMPDEST PUSH2 0x149 PUSH2 0x1CC CALLDATASIZE PUSH1 0x4 PUSH2 0x8FF JUMP JUMPDEST PUSH2 0x5A7 JUMP JUMPDEST PUSH2 0x149 PUSH2 0x1DF CALLDATASIZE PUSH1 0x4 PUSH2 0x80B JUMP JUMPDEST PUSH2 0x5C9 JUMP JUMPDEST PUSH2 0x149 PUSH2 0x1F2 CALLDATASIZE PUSH1 0x4 PUSH2 0x87F JUMP JUMPDEST PUSH2 0x635 JUMP JUMPDEST PUSH2 0x233 PUSH2 0x205 CALLDATASIZE PUSH1 0x4 PUSH2 0x7D9 JUMP JUMPDEST PUSH1 0x1 PUSH1 0x1 PUSH1 0xA0 SHL SUB SWAP2 DUP3 AND PUSH1 0x0 SWAP1 DUP2 MSTORE PUSH1 0x1 PUSH1 0x20 SWAP1 DUP2 MSTORE PUSH1 0x40 DUP1 DUP4 KECCAK256 SWAP4 SWAP1 SWAP5 AND DUP3 MSTORE SWAP2 SWAP1 SWAP2 MSTORE KECCAK256 SLOAD PUSH1 0xFF AND SWAP1 JUMP JUMPDEST PUSH1 0x40 MLOAD SWAP1 ISZERO ISZERO DUP2 MSTORE PUSH1 0x20 ADD PUSH2 0xF9 JUMP JUMPDEST PUSH2 0x233 PUSH2 0x251 CALLDATASIZE PUSH1 0x4 PUSH2 0x845 JUMP JUMPDEST PUSH1 0x0 SWAP1 DUP2 MSTORE PUSH1 0x20 DUP2 SWAP1 MSTORE PUSH1 0x40 SWAP1 KECCAK256 SLOAD PUSH1 0x1 PUSH1 0x1 PUSH1 0xA0 SHL SUB AND ISZERO ISZERO SWAP1 JUMP JUMPDEST PUSH1 0x0 DUP2 DUP2 MSTORE PUSH1 0x20 DUP2 SWAP1 MSTORE PUSH1 0x40 DUP2 KECCAK256 SLOAD PUSH1 0x1 PUSH1 0x1 PUSH1 0xA0 SHL SUB AND ADDRESS DUP2 EQ ISZERO PUSH2 0x297 JUMPI POP PUSH1 0x0 SWAP3 SWAP2 POP POP JUMP JUMPDEST SWAP3 SWAP2 POP POP JUMP JUMPDEST PUSH1 0x0 DUP4 DUP2 MSTORE PUSH1 0x20 DUP2 SWAP1 MSTORE PUSH1 0x40 DUP2 KECCAK256 SLOAD DUP5 SWAP1 PUSH1 0x1 PUSH1 0x1 PUSH1 0xA0 SHL SUB AND CALLER DUP2 EQ DUP1 PUSH2 0x2E8 JUMPI POP PUSH1 0x1 PUSH1 0x1 PUSH1 0xA0 SHL SUB DUP2 AND PUSH1 0x0 SWAP1 DUP2 MSTORE PUSH1 0x1 PUSH1 0x20 SWAP1 DUP2 MSTORE PUSH1 0x40 DUP1 DUP4 KECCAK256 CALLER DUP5 MSTORE SWAP1 SWAP2 MSTORE SWAP1 KECCAK256 SLOAD PUSH1 0xFF AND JUMPDEST PUSH2 0x2F1 JUMPI PUSH1 0x0 DUP1 REVERT JUMPDEST PUSH1 0x40 DUP1 MLOAD PUSH1 0x20 DUP1 DUP3 ADD DUP10 SWAP1 MSTORE DUP2 DUP4 ADD DUP9 SWAP1 MSTORE DUP3 MLOAD DUP1 DUP4 SUB DUP5 ADD DUP2 MSTORE PUSH1 0x60 SWAP1 SWAP3 ADD SWAP1 SWAP3 MSTORE DUP1 MLOAD SWAP2 ADD KECCAK256 PUSH2 0x323 DUP2 DUP7 PUSH2 0x650 JUMP JUMPDEST PUSH1 0x40 MLOAD PUSH1 0x1 PUSH1 0x1 PUSH1 0xA0 SHL SUB DUP7 AND DUP2 MSTORE DUP7 SWAP1 DUP9 SWAP1 PUSH32 0xCE0457FE73731F824CC272376169235128C118B49D344817417C6D108D155E82 SWAP1 PUSH1 0x20 ADD PUSH1 0x40 MLOAD DUP1 SWAP2 SUB SWAP1 LOG3 SWAP7 SWAP6 POP POP POP POP POP POP JUMP JUMPDEST PUSH1 0x0 DUP3 DUP2 MSTORE PUSH1 0x20 DUP2 SWAP1 MSTORE PUSH1 0x40 SWAP1 KECCAK256 SLOAD DUP3 SWAP1 PUSH1 0x1 PUSH1 0x1 PUSH1 0xA0 SHL SUB AND CALLER DUP2 EQ DUP1 PUSH2 0x3B8 JUMPI POP PUSH1 0x1 PUSH1 0x1 PUSH1 0xA0 SHL SUB DUP2 AND PUSH1 0x0 SWAP1 DUP2 MSTORE PUSH1 0x1 PUSH1 0x20 SWAP1 DUP2 MSTORE PUSH1 0x40 DUP1 DUP4 KECCAK256 CALLER DUP5 MSTORE SWAP1 SWAP2 MSTORE SWAP1 KECCAK256 SLOAD PUSH1 0xFF AND JUMPDEST PUSH2 0x3C1 JUMPI PUSH1 0x0 DUP1 REVERT JUMPDEST PUSH1 0x40 MLOAD PUSH8 0xFFFFFFFFFFFFFFFF DUP5 AND DUP2 MSTORE DUP5 SWAP1 PUSH32 0x1D4F9BBFC9CAB89D66E1A1562F2233CCBF1308CB4F63DE2EAD5787ADDDB8FA68 SWAP1 PUSH1 0x20 ADD PUSH1 0x40 MLOAD DUP1 SWAP2 SUB SWAP1 LOG2 POP POP PUSH1 0x0 SWAP2 DUP3 MSTORE PUSH1 0x20 DUP3 SWAP1 MSTORE PUSH1 0x40 SWAP1 SWAP2 KECCAK256 PUSH1 0x1 ADD DUP1 SLOAD PUSH8 0xFFFFFFFFFFFFFFFF SWAP1 SWAP3 AND PUSH1 0x1 PUSH1 0xA0 SHL MUL PUSH8 0xFFFFFFFFFFFFFFFF PUSH1 0xA0 SHL NOT SWAP1 SWAP3 AND SWAP2 SWAP1 SWAP2 OR SWAP1 SSTORE JUMP JUMPDEST PUSH1 0x0 DUP3 DUP2 MSTORE PUSH1 0x20 DUP2 SWAP1 MSTORE PUSH1 0x40 SWAP1 KECCAK256 SLOAD DUP3 SWAP1 PUSH1 0x1 PUSH1 0x1 PUSH1 0xA0 SHL SUB AND CALLER DUP2 EQ DUP1 PUSH2 0x48B JUMPI POP PUSH1 0x1 PUSH1 0x1 PUSH1 0xA0 SHL SUB DUP2 AND PUSH1 0x0 SWAP1 DUP2 MSTORE PUSH1 0x1 PUSH1 0x20 SWAP1 DUP2 MSTORE PUSH1 0x40 DUP1 DUP4 KECCAK256 CALLER DUP5 MSTORE SWAP1 SWAP2 MSTORE SWAP1 KECCAK256 SLOAD PUSH1 0xFF AND JUMPDEST PUSH2 0x494 JUMPI PUSH1 0x0 DUP1 REVERT JUMPDEST PUSH1 0x40 MLOAD PUSH1 0x1 PUSH1 0x1 PUSH1 0xA0 SHL SUB DUP5 AND DUP2 MSTORE DUP5 SWAP1 PUSH32 0x335721B01866DC23FBEE8B6B2C7B1E14D6F05C28CD35A2C934239F94095602A0 SWAP1 PUSH1 0x20 ADD PUSH1 0x40 MLOAD DUP1 SWAP2 SUB SWAP1 LOG2 POP POP PUSH1 0x0 SWAP2 DUP3 MSTORE PUSH1 0x20 DUP3 SWAP1 MSTORE PUSH1 0x40 SWAP1 SWAP2 KECCAK256 PUSH1 0x1 ADD DUP1 SLOAD PUSH1 0x1 PUSH1 0x1 PUSH1 0xA0 SHL SUB NOT AND PUSH1 0x1 PUSH1 0x1 PUSH1 0xA0 SHL SUB SWAP1 SWAP3 AND SWAP2 SWAP1 SWAP2 OR SWAP1 SSTORE JUMP JUMPDEST PUSH1 0x0 DUP3 DUP2 MSTORE PUSH1 0x20 DUP2 SWAP1 MSTORE PUSH1 0x40 SWAP1 KECCAK256 SLOAD DUP3 SWAP1 PUSH1 0x1 PUSH1 0x1 PUSH1 0xA0 SHL SUB AND CALLER DUP2 EQ DUP1 PUSH2 0x550 JUMPI POP PUSH1 0x1 PUSH1 0x1 PUSH1 0xA0 SHL SUB DUP2 AND PUSH1 0x0 SWAP1 DUP2 MSTORE PUSH1 0x1 PUSH1 0x20 SWAP1 DUP2 MSTORE PUSH1 0x40 DUP1 DUP4 KECCAK256 CALLER DUP5 MSTORE SWAP1 SWAP2 MSTORE SWAP1 KECCAK256 SLOAD PUSH1 0xFF AND JUMPDEST PUSH2 0x559 JUMPI PUSH1 0x0 DUP1 REVERT JUMPDEST PUSH2 0x563 DUP5 DUP5 PUSH2 0x650 JUMP JUMPDEST PUSH1 0x40 MLOAD PUSH1 0x1 PUSH1 0x1 PUSH1 0xA0 SHL SUB DUP5 AND DUP2 MSTORE DUP5 SWAP1 PUSH32 0xD4735D920B0F87494915F556DD9B54C8F309026070CAEA5C737245152564D266 SWAP1 PUSH1 0x20 ADD PUSH1 0x40 MLOAD DUP1 SWAP2 SUB SWAP1 LOG2 POP POP POP POP JUMP JUMPDEST PUSH1 0x0 PUSH2 0x5B4 DUP7 DUP7 DUP7 PUSH2 0x29D JUMP JUMPDEST SWAP1 POP PUSH2 0x5C1 DUP2 DUP5 DUP5 PUSH2 0x67E JUMP JUMPDEST POP POP POP POP POP POP JUMP JUMPDEST CALLER PUSH1 0x0 DUP2 DUP2 MSTORE PUSH1 0x1 PUSH1 0x20 SWAP1 DUP2 MSTORE PUSH1 0x40 DUP1 DUP4 KECCAK256 PUSH1 0x1 PUSH1 0x1 PUSH1 0xA0 SHL SUB DUP8 AND DUP1 DUP6 MSTORE SWAP1 DUP4 MSTORE SWAP3 DUP2 SWAP1 KECCAK256 DUP1 SLOAD PUSH1 0xFF NOT AND DUP7 ISZERO ISZERO SWAP1 DUP2 OR SWAP1 SWAP2 SSTORE SWAP1 MLOAD SWAP1 DUP2 MSTORE SWAP2 SWAP3 SWAP2 PUSH32 0x17307EAB39AB6107E8899845AD3D59BD9653F200F220920489CA2B5937696C31 SWAP2 ADD PUSH1 0x40 MLOAD DUP1 SWAP2 SUB SWAP1 LOG3 POP POP JUMP JUMPDEST PUSH2 0x63F DUP5 DUP5 PUSH2 0x505 JUMP JUMPDEST PUSH2 0x64A DUP5 DUP4 DUP4 PUSH2 0x67E JUMP JUMPDEST POP POP POP POP JUMP JUMPDEST PUSH1 0x0 SWAP2 DUP3 MSTORE PUSH1 0x20 DUP3 SWAP1 MSTORE PUSH1 0x40 SWAP1 SWAP2 KECCAK256 DUP1 SLOAD PUSH1 0x1 PUSH1 0x1 PUSH1 0xA0 SHL SUB NOT AND PUSH1 0x1 PUSH1 0x1 PUSH1 0xA0 SHL SUB SWAP1 SWAP3 AND SWAP2 SWAP1 SWAP2 OR SWAP1 SSTORE JUMP JUMPDEST PUSH1 0x0 DUP4 DUP2 MSTORE PUSH1 0x20 DUP2 SWAP1 MSTORE PUSH1 0x40 SWAP1 KECCAK256 PUSH1 0x1 ADD SLOAD PUSH1 0x1 PUSH1 0x1 PUSH1 0xA0 SHL SUB DUP4 DUP2 AND SWAP2 AND EQ PUSH2 0x704 JUMPI PUSH1 0x0 DUP4 DUP2 MSTORE PUSH1 0x20 DUP2 DUP2 MSTORE PUSH1 0x40 SWAP2 DUP3 SWAP1 KECCAK256 PUSH1 0x1 ADD DUP1 SLOAD PUSH1 0x1 PUSH1 0x1 PUSH1 0xA0 SHL SUB NOT AND PUSH1 0x1 PUSH1 0x1 PUSH1 0xA0 SHL SUB DUP7 AND SWAP1 DUP2 OR SWAP1 SWAP2 SSTORE SWAP2 MLOAD SWAP2 DUP3 MSTORE DUP5 SWAP2 PUSH32 0x335721B01866DC23FBEE8B6B2C7B1E14D6F05C28CD35A2C934239F94095602A0 SWAP2 ADD PUSH1 0x40 MLOAD DUP1 SWAP2 SUB SWAP1 LOG2 JUMPDEST PUSH1 0x0 DUP4 DUP2 MSTORE PUSH1 0x20 DUP2 SWAP1 MSTORE PUSH1 0x40 SWAP1 KECCAK256 PUSH1 0x1 ADD SLOAD PUSH8 0xFFFFFFFFFFFFFFFF DUP3 DUP2 AND PUSH1 0x1 PUSH1 0xA0 SHL SWAP1 SWAP3 DIV AND EQ PUSH2 0x7A0 JUMPI PUSH1 0x0 DUP4 DUP2 MSTORE PUSH1 0x20 DUP2 DUP2 MSTORE PUSH1 0x40 SWAP2 DUP3 SWAP1 KECCAK256 PUSH1 0x1 ADD DUP1 SLOAD PUSH8 0xFFFFFFFFFFFFFFFF PUSH1 0xA0 SHL NOT AND PUSH1 0x1 PUSH1 0xA0 SHL PUSH8 0xFFFFFFFFFFFFFFFF DUP7 AND SWAP1 DUP2 MUL SWAP2 SWAP1 SWAP2 OR SWAP1 SWAP2 SSTORE SWAP2 MLOAD SWAP2 DUP3 MSTORE DUP5 SWAP2 PUSH32 0x1D4F9BBFC9CAB89D66E1A1562F2233CCBF1308CB4F63DE2EAD5787ADDDB8FA68 SWAP2 ADD PUSH1 0x40 MLOAD DUP1 SWAP2 SUB SWAP1 LOG2 JUMPDEST POP POP POP JUMP JUMPDEST DUP1 CALLDATALOAD PUSH1 0x1 PUSH1 0x1 PUSH1 0xA0 SHL SUB DUP2 AND DUP2 EQ PUSH2 0x7BC JUMPI PUSH1 0x0 DUP1 REVERT JUMPDEST SWAP2 SWAP1 POP JUMP JUMPDEST DUP1 CALLDATALOAD PUSH8 0xFFFFFFFFFFFFFFFF DUP2 AND DUP2 EQ PUSH2 0x7BC JUMPI PUSH1 0x0 DUP1 REVERT JUMPDEST PUSH1 0x0 DUP1 PUSH1 0x40 DUP4 DUP6 SUB SLT ISZERO PUSH2 0x7EB JUMPI DUP2 DUP3 REVERT JUMPDEST PUSH2 0x7F4 DUP4 PUSH2 0x7A5 JUMP JUMPDEST SWAP2 POP PUSH2 0x802 PUSH1 0x20 DUP5 ADD PUSH2 0x7A5 JUMP JUMPDEST SWAP1 POP SWAP3 POP SWAP3 SWAP1 POP JUMP JUMPDEST PUSH1 0x0 DUP1 PUSH1 0x40 DUP4 DUP6 SUB SLT ISZERO PUSH2 0x81D JUMPI DUP2 DUP3 REVERT JUMPDEST PUSH2 0x826 DUP4 PUSH2 0x7A5 JUMP JUMPDEST SWAP2 POP PUSH1 0x20 DUP4 ADD CALLDATALOAD DUP1 ISZERO ISZERO DUP2 EQ PUSH2 0x83A JUMPI DUP2 DUP3 REVERT JUMPDEST DUP1 SWAP2 POP POP SWAP3 POP SWAP3 SWAP1 POP JUMP JUMPDEST PUSH1 0x0 PUSH1 0x20 DUP3 DUP5 SUB SLT ISZERO PUSH2 0x856 JUMPI DUP1 DUP2 REVERT JUMPDEST POP CALLDATALOAD SWAP2 SWAP1 POP JUMP JUMPDEST PUSH1 0x0 DUP1 PUSH1 0x40 DUP4 DUP6 SUB SLT ISZERO PUSH2 0x86F JUMPI DUP2 DUP3 REVERT JUMPDEST DUP3 CALLDATALOAD SWAP2 POP PUSH2 0x802 PUSH1 0x20 DUP5 ADD PUSH2 0x7A5 JUMP JUMPDEST PUSH1 0x0 DUP1 PUSH1 0x0 DUP1 PUSH1 0x80 DUP6 DUP8 SUB SLT ISZERO PUSH2 0x894 JUMPI DUP2 DUP3 REVERT JUMPDEST DUP5 CALLDATALOAD SWAP4 POP PUSH2 0x8A4 PUSH1 0x20 DUP7 ADD PUSH2 0x7A5 JUMP JUMPDEST SWAP3 POP PUSH2 0x8B2 PUSH1 0x40 DUP7 ADD PUSH2 0x7A5 JUMP JUMPDEST SWAP2 POP PUSH2 0x8C0 PUSH1 0x60 DUP7 ADD PUSH2 0x7C1 JUMP JUMPDEST SWAP1 POP SWAP3 SWAP6 SWAP2 SWAP5 POP SWAP3 POP JUMP JUMPDEST PUSH1 0x0 DUP1 PUSH1 0x0 PUSH1 0x60 DUP5 DUP7 SUB SLT ISZERO PUSH2 0x8DF JUMPI DUP3 DUP4 REVERT JUMPDEST DUP4 CALLDATALOAD SWAP3 POP PUSH1 0x20 DUP5 ADD CALLDATALOAD SWAP2 POP PUSH2 0x8F6 PUSH1 0x40 DUP6 ADD PUSH2 0x7A5 JUMP JUMPDEST SWAP1 POP SWAP3 POP SWAP3 POP SWAP3 JUMP JUMPDEST PUSH1 0x0 DUP1 PUSH1 0x0 DUP1 PUSH1 0x0 PUSH1 0xA0 DUP7 DUP9 SUB SLT ISZERO PUSH2 0x916 JUMPI DUP1 DUP2 REVERT JUMPDEST DUP6 CALLDATALOAD SWAP5 POP PUSH1 0x20 DUP7 ADD CALLDATALOAD SWAP4 POP PUSH2 0x92D PUSH1 0x40 DUP8 ADD PUSH2 0x7A5 JUMP JUMPDEST SWAP3 POP PUSH2 0x93B PUSH1 0x60 DUP8 ADD PUSH2 0x7A5 JUMP JUMPDEST SWAP2 POP PUSH2 0x949 PUSH1 0x80 DUP8 ADD PUSH2 0x7C1 JUMP JUMPDEST SWAP1 POP SWAP3 SWAP6 POP SWAP3 SWAP6 SWAP1 SWAP4 POP JUMP JUMPDEST PUSH1 0x0 DUP1 PUSH1 0x40 DUP4 DUP6 SUB SLT ISZERO PUSH2 0x967 JUMPI DUP2 DUP3 REVERT JUMPDEST DUP3 CALLDATALOAD SWAP2 POP PUSH2 0x802 PUSH1 0x20 DUP5 ADD PUSH2 0x7C1 JUMP INVALID LOG2 PUSH5 0x6970667358 0x22 SLT KECCAK256 0xD0 SWAP12 0x26 SWAP7 0xED STATICCALL PUSH14 0xFE0A75AAB86C3917CBA026A9621D CALLER 0xAA LOG1 0x24 DUP8 XOR CODECOPY 0x2A PUSH23 0xAC5164736F6C6343000804003300000000000000000000 "
		},
		"gasEstimates": {
			"creation": {
				"codeDepositCost": "495400",
				"executionCost": "21383",
				"totalCost": "516783"
			},
			"external": {
				"isApprovedForAll(address,address)": "infinite",
				"owner(bytes32)": "1240",
				"recordExists(bytes32)": "1281",
				"resolver(bytes32)": "1176",
				"setApprovalForAll(address,bool)": "23229",
				"setOwner(bytes32,address)": "24664",
				"setRecord(bytes32,address,address,uint64)": "infinite",
				"setResolver(bytes32,address)": "24747",
				"setSubnodeOwner(bytes32,bytes32,address)": "25330",
				"setSubnodeRecord(bytes32,bytes32,address,address,uint64)": "infinite",
				"setTTL(bytes32,uint64)": "24681",
				"ttl(bytes32)": "1268"
			},
			"internal": {
				"_setOwner(bytes32,address)": "20953",
				"_setResolverAndTTL(bytes32,address,uint64)": "infinite"
			}
		},
		"methodIdentifiers": {
			"isApprovedForAll(address,address)": "e985e9c5",
			"owner(bytes32)": "02571be3",
			"recordExists(bytes32)": "f79fe538",
			"resolver(bytes32)": "0178b8bf",
			"setApprovalForAll(address,bool)": "a22cb465",
			"setOwner(bytes32,address)": "5b0fc9c3",
			"setRecord(bytes32,address,address,uint64)": "cf408823",
			"setResolver(bytes32,address)": "1896f70a",
			"setSubnodeOwner(bytes32,bytes32,address)": "06ab5923",
			"setSubnodeRecord(bytes32,bytes32,address,address,uint64)": "5ef2c7f0",
			"setTTL(bytes32,uint64)": "14ab9038",
			"ttl(bytes32)": "16a25cbd"
		}
	},
	"abi": [
		{
			"inputs": [],
			"stateMutability": "nonpayable",
			"type": "constructor"
		},
		{
			"anonymous": false,
			"inputs": [
				{
					"indexed": true,
					"internalType": "address",
					"name": "owner",
					"type": "address"
				},
				{
					"indexed": true,
					"internalType": "address",
					"name": "operator",
					"type": "address"
				},
				{
					"indexed": false,
					"internalType": "bool",
					"name": "approved",
					"type": "bool"
				}
			],
			"name": "ApprovalForAll",
			"type": "event"
		},
		{
			"anonymous": false,
			"inputs": [
				{
					"indexed": true,
					"internalType": "bytes32",
					"name": "node",
					"type": "bytes32"
				},
				{
					"indexed": true,
					"internalType": "bytes32",
					"name": "label",
					"type": "bytes32"
				},
				{
					"indexed": false,
					"internalType": "address",
					"name": "owner",
					"type": "address"
				}
			],
			"name": "NewOwner",
			"type": "event"
		},
		{
			"anonymous": false,
			"inputs": [
				{
					"indexed": true,
					"internalType": "bytes32",
					"name": "node",
					"type": "bytes32"
				},
				{
					"indexed": false,
					"internalType": "address",
					"name": "resolver",
					"type": "address"
				}
			],
			"name": "NewResolver",
			"type": "event"
		},
		{
			"anonymous": false,
			"inputs": [
				{
					"indexed": true,
					"internalType": "bytes32",
					"name": "node",
					"type": "bytes32"
				},
				{
					"indexed": false,
					"internalType": "uint64",
					"name": "ttl",
					"type": "uint64"
				}
			],
			"name": "NewTTL",
			"type": "event"
		},
		{
			"anonymous": false,
			"inputs": [
				{
					"indexed": true,
					"internalType": "bytes32",
					"name": "node",
					"type": "bytes32"
				},
				{
					"indexed": false,
					"internalType": "address",
					"name": "owner",
					"type": "address"
				}
			],
			"name": "Transfer",
			"type": "event"
		},
		{
			"inputs": [
				{
					"internalType": "address",
					"name": "owner",
					"type": "address"
				},
				{
					"internalType": "address",
					"name": "operator",
					"type": "address"
				}
			],
			"name": "isApprovedForAll",
			"outputs": [
				{
					"internalType": "bool",
					"name": "",
					"type": "bool"
				}
			],
			"stateMutability": "view",
			"type": "function"
		},
		{
			"inputs": [
				{
					"internalType": "bytes32",
					"name": "node",
					"type": "bytes32"
				}
			],
			"name": "owner",
			"outputs": [
				{
					"internalType": "address",
					"name": "",
					"type": "address"
				}
			],
			"stateMutability": "view",
			"type": "function"
		},
		{
			"inputs": [
				{
					"internalType": "bytes32",
					"name": "node",
					"type": "bytes32"
				}
			],
			"name": "recordExists",
			"outputs": [
				{
					"internalType": "bool",
					"name": "",
					"type": "bool"
				}
			],
			"stateMutability": "view",
			"type": "function"
		},
		{
			"inputs": [
				{
					"internalType": "bytes32",
					"name": "node",
					"type": "bytes32"
				}
			],
			"name": "resolver",
			"outputs": [
				{
					"internalType": "address",
					"name": "",
					"type": "address"
				}
			],
			"stateMutability": "view",
			"type": "function"
		},
		{
			"inputs": [
				{
					"internalType": "address",
					"name": "operator",
					"type": "address"
				},
				{
					"internalType": "bool",
					"name": "approved",
					"type": "bool"
				}
			],
			"name": "setApprovalForAll",
			"outputs": [],
			"stateMutability": "nonpayable",
			"type": "function"
		},
		{
			"inputs": [
				{
					"internalType": "bytes32",
					"name": "node",
					"type": "bytes32"
				},
				{
					"internalType": "address",
					"name": "owner",
					"type": "address"
				}
			],
			"name": "setOwner",
			"outputs": [],
			"stateMutability": "nonpayable",
			"type": "function"
		},
		{
			"inputs": [
				{
					"internalType": "bytes32",
					"name": "node",
					"type": "bytes32"
				},
				{
					"internalType": "address",
					"name": "owner",
					"type": "address"
				},
				{
					"internalType": "address",
					"name": "resolver",
					"type": "address"
				},
				{
					"internalType": "uint64",
					"name": "ttl",
					"type": "uint64"
				}
			],
			"name": "setRecord",
			"outputs": [],
			"stateMutability": "nonpayable",
			"type": "function"
		},
		{
			"inputs": [
				{
					"internalType": "bytes32",
					"name": "node",
					"type": "bytes32"
				},
				{
					"internalType": "address",
					"name": "resolver",
					"type": "address"
				}
			],
			"name": "setResolver",
			"outputs": [],
			"stateMutability": "nonpayable",
			"type": "function"
		},
		{
			"inputs": [
				{
					"internalType": "bytes32",
					"name": "node",
					"type": "bytes32"
				},
				{
					"internalType": "bytes32",
					"name": "label",
					"type": "bytes32"
				},
				{
					"internalType": "address",
					"name": "owner",
					"type": "address"
				}
			],
			"name": "setSubnodeOwner",
			"outputs": [
				{
					"internalType": "bytes32",
					"name": "",
					"type": "bytes32"
				}
			],
			"stateMutability": "nonpayable",
			"type": "function"
		},
		{
			"inputs": [
				{
					"internalType": "bytes32",
					"name": "node",
					"type": "bytes32"
				},
				{
					"internalType": "bytes32",
					"name": "label",
					"type": "bytes32"
				},
				{
					"internalType": "address",
					"name": "owner",
					"type": "address"
				},
				{
					"internalType": "address",
					"name": "resolver",
					"type": "address"
				},
				{
					"internalType": "uint64",
					"name": "ttl",
					"type": "uint64"
				}
			],
			"name": "setSubnodeRecord",
			"outputs": [],
			"stateMutability": "nonpayable",
			"type": "function"
		},
		{
			"inputs": [
				{
					"internalType": "bytes32",
					"name": "node",
					"type": "bytes32"
				},
				{
					"internalType": "uint64",
					"name": "ttl",
					"type": "uint64"
				}
			],
			"name": "setTTL",
			"outputs": [],
			"stateMutability": "nonpayable",
			"type": "function"
		},
		{
			"inputs": [
				{
					"internalType": "bytes32",
					"name": "node",
					"type": "bytes32"
				}
			],
			"name": "ttl",
			"outputs": [
				{
					"internalType": "uint64",
					"name": "",
					"type": "uint64"
				}
			],
			"stateMutability": "view",
			"type": "function"
		}
	]
}